:020000040800F2
:100000000004002047010008BD020008BF020008EC
:10001000C3020008C7020008CB020008000000006D
:10002000000000000000000000000000CF020008F7
:10003000D102000800000000D3020008D502000829
:1000400067010008670100086701000867010008F0
:1000500067010008670100086701000867010008E0
:1000600067010008670100086701000867010008D0
:1000700067010008670100086701000867010008C0
:100080006701000867010008D7020008670100083F
:1000900067010008670100086701000867010008A0
:1000A0006701000867010008670100086701000890
:1000B0006701000867010008670100086701000880
:1000C0006701000867010008670100086701000870
:1000D0006701000867010008670100086701000860
:1000E0006701000867010008670100086701000850
:1000F0006701000867010008670100086701000840
:10010000670100086701000867010008670100082F
:10011000670100086701000867010008670100081F
:10012000670100086701000867010008670100080F
:10013000DFF80CD003F0E8F900480047030200089C
:1001400000030020704708488047084981F3088869
:1001500007480047FEE7FEE7FEE7FEE7FEE7FEE7AB
:10016000FEE7FEE7FEE7FEE745010008000300208A
:10017000310100082DE9F04104460F4625786678E4
:10018000012D02D0022D38D12CE038480078B0B1D2
:10019000022037490870002048700121354802F0DC
:1001A000EAF80221324800F0C0F833A000F0F7F876
:1001B000642001F094F901212E4802F0DAF8042EAF
:1001C0000FD13048618801802F48A18801802FA07D
:1001D00000F0E5F8642001F082F90221254802F0E0
:1001E000C8F80BE02DA000F0DAF8642001F077F9F0
:1001F0000221204802F0BDF800E000BF00BFBDE8CA
:10020000F08101F03AFD482001F010F901F03AFACE
:1002100000F012FC00F059FF0121164802F0A9F885
:100220000221144802F0A5F800F056F800F05AF840
:100230001DA000F0B4F800F0D7F815E000F0F9F8D0
:100240001D4800F053F80446002C03DDE1B21A48C3
:10025000FFF790FF00F0D6F918B14FF4FA7001F0F3
:100260003EF900F084F900BFE8E700000800002034
:100270003C000020000C0140BBD8B8B4D3A6B4F0B9
:100280002E2E2E000A0000200C000020CAD5B5BD7D
:10029000CEC2CAAAB6C8CAFDBEDD0000CAD5B5BD69
:1002A000D3A6B4F00000000073797374656D2073F9
:1002B00074617274000000007C000020704700BF71
:1002C000FEE700BFFEE700BFFEE700BFFEE77047A6
:1002D000704770477047704710B501F00FF901F093
:1002E00073FB10BD10B501F06FFB10BD70B5054676
:1002F00000244FF480611C4802F021F860B1022113
:10030000194802F038F819A000F049F81A4801F02D
:1003100085FB0446FFF7E6FF002C04DD1748008844
:10032000401C16490880204670BD70B506460C4634
:100330000025204601F0A1FB05462146304601F08C
:10034000D6FB05460A2001F0CAF8FFF7CBFF4FF4B1
:10035000FA6001F0C4F8002D04DD09480088401C53
:1003600007490880E8B270BD000C01405246205297
:1003700065636569766564007C00002006000020E6
:10038000040000200FB408B503A80090009902985B
:1003900003F022F90020009001B05DF814FB7CB559
:1003A0000446C3A20321002000F0A4FCC548007845
:1003B000401CC0B2C34908700A2190FBF1F201FB56
:1003C00012052A46C0A1684603F0F2F86A460321E6
:1003D000002000F08FFC224603210E2000F08AFC52
:1003E0002046FFF7CFFF7CBD2DE9FC47B749B84851
:1003F00000F0F6FFD8B1B548008802F08CFE064642
:100400000022B44B02F018FE04460D46B0480088A6
:1004100002F081FE06460022AE4B02F00DFE804641
:1004200042460B46ACA0CDE90045FFF7ABFFBDE867
:10043000FC8710B54FF40051AD4801F080FF002853
:1004400040D1142001F030F84FF40051A84801F0D9
:1004500076FF002836D1002400BF1AE0642001F0A6
:1004600023F84FF40051A24801F069FF80B1A14880
:10047000007808B9012000E000209E490870097842
:1004800009B19DA100E0A0A10846FFF788FF02E0A6
:10049000641C0A2CE2DB00BF0A2C12DB9FA0FFF7D2
:1004A0007EFF0020A0490880A049088000BF4FF4CB
:1004B00000518F4801F043FF0028F8D0002000F0E1
:1004C000E5F900BF01219A4801F039FF002834D135
:1004D0000A2000F0E9FFFFF787FF0121944801F0AF
:1004E0002EFF50BB002400BF0121914801F027FFDF
:1004F0000028F9D001208F49087004204870084670
:1005000073490988418071490988818001218A489D
:1005100001F031FF06218748FFF707FF0446002C52
:1005200003DD86A0FFF73BFF02E088A0FFF737FF5F
:100530000121814801F01DFF00BF02217C4801F02C
:10054000FEFE98B90A2000F0AFFF0221784801F0C2
:10055000F6FE58B900BF0221754801F0F0FE0028F0
:10056000F9D07E48008832307C49088010BD2DE9E2
:10057000F04393B0402103A802F053FD5D4800789A
:1005800008B177A000E079A003467B487BA1026810
:1005900003A803F00DF803AA0021084600F0AAFB07
:1005A0004A48008802F0B7FD06460022494B02F097
:1005B00043FD04460D464648008802F0ACFD064661
:1005C0000022444B02F038FD804642460B466DA1A6
:1005D00003A8CDE9004502F0EBFF03AA01210020AA
:1005E00000F088FB514803884F4802886AA103A89D
:1005F00002F0DEFF03AA0221002000F07BFB13B013
:10060000BDE8F08310B567480088544909888842DE
:1006100001DB002010BD63480088401C6149088050
:100620000121454801F0A7FEFFF7DEFE0120414908
:1006300008700420487008462549098841802349EC
:10064000098881800621FFF770FE444803885548D9
:10065000028855A1374802F0ABFF3648FFF79FFEEE
:100660000121354801F085FEFFF781FF0120D1E728
:1006700010B551480068401C4F490860C82816D979
:10068000002008604D48007808B9012000E00020F3
:100690004A49087008460078012804D102212648FA
:1006A00001F067FE03E00221234801F064FE10BD63
:1006B000202020202020202020202020202020203A
:1006C000000000001900002025643A000C00002002
:1006D0000A00002000002440CEC2B6C8A3BA252ECE
:1006E000316620CAAAB6C8A3BA252E3166252500D0
:1006F0000010014008000020C7D0BBBBCEAAD3A683
:10070000B4F0C4A3CABD0000C7D0BBBBCEAAB7C754
:10071000D3A6B4F0C4A3CABD00000000636C656139
:1007200072202E2E2E2E0000040000200600002035
:10073000000801403C000020000C0140B5A5B4CEEB
:10074000B7A2CBCDB3C9B9A600000000B5A5B4CE01
:10075000B7A2CBCDCAA7B0DC000000000E0000207D
:10076000BDD3CAD5D3A6B4F020200000BDD3CAD5CE
:10077000CEDED3A6B4F000000000002025732025B3
:1007800073000000CEC2CAAAB6C8252E3166202545
:100790002E31662525000000B7A2256420CAD52584
:1007A0006400000010000020C1ACD0F8B7A2CBCD8F
:1007B0003A25642F25640000140000201800002052
:1007C00070B5044608258021F74801F0D2FD40218C
:1007D000F54801F0D0FD17E014F0800F05D04FF47C
:1007E0000071F14801F0C5FD04E04FF40071EE48DE
:1007F00001F0C1FD4021EC4801F0BBFD4021EA4879
:1008000001F0B9FD6006040E2800A5F10101CDB28A
:10081000E2D170BD70B5044608258021E24801F0A0
:10082000AAFD4021E04801F0A6FD17E014F0800F7A
:1008300005D04FF40071DC4801F09BFD04E04FF45B
:100840000071D94801F097FD4021D74801F091FD92
:100850004021D54801F08FFD6006040E2800A5F167
:100860000101CDB2E2D170BD70B504460D4605F16F
:10087000B001C8B2FFF7CEFF102141EA1410FFF714
:10088000C9FF04F00F00FFF7C5FF70BD70B5064645
:10089000002415E004F1B001C8B2FFF7BBFF00204F
:1008A000FFF7B8FF1020FFF7B5FF002504E0304642
:1008B000FFF786FF681CC5B2802DF8DB601CC4B250
:1008C000082CE7DB70BD70B504462546E11704EB44
:1008D00011710911A4EB0111C8B2FFF79BFF254666
:1008E000E11704EB117109111031C8B2FFF792FF43
:1008F00070BD10B504462020FFF78CFF2046FFF79F
:1009000089FF10BD70B505460C462120FFF782FF18
:100910002846FFF77FFF2046FFF77CFF70BD70B5CC
:1009200005460C462220FFF775FF2846FFF772FFA9
:100930002046FFF76FFF70BD10B5044644F040003D
:10094000FFF768FF10BD10B504468120FFF762FF76
:100950002046FFF75FFF10BD10B504468D20FFF75E
:1009600059FF44F01000FFF755FF10BD10B50446C5
:1009700044F0A000FFF74EFF10BD10B5044644F050
:10098000A400FFF747FF10BD10B5044644F0A600D1
:10099000FFF740FF10BD10B50446A820FFF73AFF4F
:1009A0002046FFF737FF10BD10B5044644F0AE00F7
:1009B000FFF730FF10BD10B5044644F0B000FFF75C
:1009C00029FF10BD10B5044644F0C000FFF722FF18
:1009D00010BD10B50446D320FFF71CFF2046FFF7DB
:1009E00019FF10BD10B50446D520FFF713FF2046B0
:1009F000FFF710FF10BD10B50446D920FFF70AFF1E
:100A00002046FFF707FF10BD10B50446DA20FFF7B8
:100A100001FF44F00200FFF7FDFE10BD10B50446D3
:100A2000DB20FFF7F7FE2046FFF7F4FE10BD10B500
:100A3000E320FFF7EFFE10BD10B540215A4801F04A
:100A400098FC4FF48071584801F095FC002400E0B8
:100A5000641C42F210708442FAD34FF48071524801
:100A600001F087FC0020FFF79FFF8020FFF7BAFF0F
:100A70003F20FFF790FF0020FFF7ABFF0020FFF7BC
:100A80005BFF0420FFF768FF0220FFF732FF012021
:100A9000FFF76CFF0820FFF795FF1020FFF7B4FF6A
:100AA000CF20FFF750FFF120FFF7A5FF4020FFF711
:100AB000B5FF0020FFF761FF0020FFF765FF012071
:100AC000FFF772FF0020FFF7E1FE00210846FFF765
:100AD000CBFE10BD2DE9F04105460E461746A7F1A5
:100AE000200000F0FF087A2D02DD0025701CC6B240
:100AF00031462846FFF7B8FE002409E008EB48011C
:100B00002A4A02EB4101085DFFF75AFE601CC4B29D
:100B1000062CF3DBBDE8F0812DE9F0470446894659
:100B20001546002720E0E85D203800F0FF087A2C09
:100B300004DD002409F1010000F0FF0949462046C8
:100B4000FFF792FE002609E008EB4801174A02EB86
:100B50004101885DFFF734FE701CC6B2062EF3DB40
:100B6000A01DC4B2781CC7B2E85D0028DBD1BDE887
:100B7000F0872DE9F04706460D4617466806050E34
:100B80004FF0000837E017F80800203800F0FF09A0
:100B9000782E02DD0026A81CC5B229463046FFF794
:100BA00063FE00240CE00000000C0140B43E00088D
:100BB00004EB0911F84A505CFFF702FE601CC4B256
:100BC000082CF5DB681CC1B23046FFF74DFE00244F
:100BD00008E004EB09110831EF4A505CFFF7F0FD23
:100BE000601CC4B2082CF4DB06F10800C6B208F1A0
:100BF000010000F0FF0817F808000028C3D1BDE885
:100C0000F0872DE9F04781460E4690467006060EA5
:100C1000002769E00024012513E0E048005D18F892
:100C2000071088420BD1DD49601C095C781C18F85C
:100C30000000814203D1C4EBC400450005E0A01CC4
:100C4000C4B2D648005D7F28E7DC00BFB9F1720F5F
:100C500003DD4FF00009B01CC6B2012D23D0314690
:100C60004846FFF701FE002407E0CD49485DFFF745
:100C7000A7FD681C85B2601CC4B20E2CF5DB701C8D
:100C8000C1B24846FFF7F0FD002407E0C449485DC3
:100C9000FFF796FD681C85B2601CC4B20E2CF5DB14
:100CA000B81CC7B21CE031464846FFF7DDFD002402
:100CB00004E00020FFF784FD601CC4B20E2CF8DBBA
:100CC000701CC1B24846FFF7CFFD002404E00020AD
:100CD000FFF776FD601CC4B20E2CF8DB781CC7B29F
:100CE00009F10E0000F0FF0918F80700002891D163
:100CF000BDE8F087F8B506460F461546002427E004
:100D0000285D7F2814DD285D8DF80000601C285CBC
:100D10008DF8010000208DF802006A463946304601
:100D2000FFF76FFF06F10E00C6B2A01CC4B20FE0C1
:100D3000285D8DF8000000208DF801006A463946D4
:100D40003046FFF716FF06F10800C6B2601CC4B2B9
:100D5000285D0028D4D1F8BD2DE9F04705468A4624
:100D60001646002E07DA2D2251462846FFF7B2FE1E
:100D7000704284B205E02B2251462846FFF7AAFEB6
:100D80003446642094FBF0F087B2642094FBF0F1C9
:100D900000FB11400A2190FBF1F01FFA80F80A20B5
:100DA00094FBF0F100FB11401FFA80F907F13001CC
:100DB000CAB2A91DC8B25146FFF78CFE08F1300136
:100DC000CAB205F10C01C8B25146FFF783FE09F122
:100DD0003001CAB205F11201C8B25146FFF77AFEDE
:100DE000BDE8F0872DE9F74F05461646002E07DAD5
:100DF0002D2228460199FFF76DFE704284B205E06E
:100E00002B2228460199FFF765FEB4B242F210701A
:100E100094FBF0F01FFA80FA42F2107094FBF0F1AC
:100E200000FB11404FF47A7190FBF1F01FFA80FB48
:100E3000084694FBF0F100FB1140642190FBF1F0B7
:100E400087B2642094FBF0F100FB11400A2190FB73
:100E5000F1F01FFA80F80A2094FBF0F100FB11403A
:100E60001FFA80F90AF13001CAB2A91DC8B201996E
:100E7000FFF730FE0BF13001CAB205F10C01C8B228
:100E80000199FFF727FE07F13001CAB205F11201FF
:100E9000C8B20199FFF71EFE08F13001CAB205F190
:100EA0001801C8B20199FFF715FE09F13001CAB265
:100EB00005F11E01C8B20199FFF70CFEBDE8FE8FD7
:100EC0002DE9FC5F82460C469146E01001902046D9
:100ED000E11704EB5171C910A4EBC10189B2009173
:100EE000002626E0F1B20020FFF7BEFC4FF6FF70AF
:100EF00000EAC60B002718E00025A8460DE06D109B
:100F00000BEB080000FB09A0C05D012801D145F0F2
:100F1000800508F101001FFA80F8B8F1080FEEDB38
:100F20002846FFF74DFC781C87B24F45E4DB701C68
:100F300086B201988642D5DBF1B20020FFF794FC1F
:100F40004FF6FF7000EAC60B00271CE00025A846FC
:100F50000DE06D100BEB080000FB09A0C05D01283F
:100F600001D145F0800508F101001FFA80F80098D2
:100F70008045EEDB0098C0F1080005412846FFF7E8
:100F80001FFC781C87B24F45E0DBBDE8FC9F00EBFF
:100F9000800359000DE00000C9450008DC4000084E
:100FA000314100086E2201E0531EDAB2002AFBDC58
:100FB000491E0029F6DC704700B587B04FF4165083
:100FC00003900020ADF81000ADF81200ADF8140049
:100FD000ADF818000C20ADF816000020ADF80400A4
:100FE000ADF806004FF40070ADF808000020ADF831
:100FF0000A0001A9434801F0DFFA03A9414801F0C2
:1010000084FA01213F4801F0EEFA07B000BD08B5AF
:101010004FF40070ADF8000018208DF80300032095
:101020008DF802006946384801F0F8F84FF4806006
:10103000ADF8000004208DF803006946324801F045
:10104000EDF808BD10B500214FF0006000F078FE0B
:1010500010BD10B500F0AAFE4FF4803000F0C5FEC0
:1010600000F002FF2949087008460078012826D1BF
:10107000002000F03EFF002000F04DFF4FF48060A4
:1010800000F040FF022001F0AFFB102001F0C0FB98
:101090004FF4E0114FF4803000F00EFF012000F01B
:1010A00017FF00BF392000F0C3FE0028FAD002204D
:1010B00000F011FF00BF00F017FF0828FBD101214D
:1010C00044F2040000F0DAFF10BD10B5FFF7C1FFD5
:1010D000FFF7B8FFFFF79BFFFFF76EFF0CA002F0D2
:1010E00057FA10BD70B504460D46E1B2054801F04F
:1010F000E2FA00BF4021034801F034FB0028F9D098
:10110000204670BD00380140000801401A00002050
:101110000D0A20202D2D2D2D2D2D2D2D2D2D2D2D5C
:101120002D2D2D2D2D2D2D2D2D2D2D2D2D2D200D1C
:101130000A00000010B58F48006820F070608D49EB
:1011400008600846006840F0407008604020894907
:101150001031086020200860082000F083F940204A
:10116000844914310860082000F07CF9202081496E
:101170001431086010BD10B57E48006820F0706022
:101180007C4908600846006840F0407008602020F4
:1011900078491431086040200860082000F062F9A6
:1011A000202074491031086040200860082000F0B9
:1011B00059F910BD10B500246E48006820F0706029
:1011C0006C4908600846006840F0006008604020F4
:1011D000684910310860012000F044F92020654979
:1011E00010310860012000F03DF907E0601CC4B236
:1011F000FA2C03DDFFF7BFFF012010BD5D4808306A
:10120000006810F0400FF1D120205A4914310860D5
:101210000020F2E710B520205649143108605548E7
:10122000006820F07060534908600846006840F08C
:101230004070086040204F4914310860062000F0DB
:1012400011F920204B4910310860062000F00AF9FE
:10125000202048491431086010BD10B520204549B0
:10126000143108604348006820F07060414908600C
:101270000846006840F04070086040203D49103149
:101280000860062000F0EEF820203A49103108608E
:10129000062000F0E7F8202036491431086010BD20
:1012A00070B504463348006820F07060314908602A
:1012B0000846006840F04070086020202D49143135
:1012C000086000251FE0E00904D0402029491031C2
:1012D000086003E040202749143108606006040ECE
:1012E000022000F0BFF820202249103108600220BF
:1012F00000F0B8F820201F4914310860022000F0E7
:10130000B1F8681CC5B2082DDDDB70BD70B50546AF
:1013100000241848006820F07060164908600846EC
:10132000006840F000600860002619E020201149A4
:1013300014310860022000F095F820200D4910318A
:1013400008606006040E0B480830006810F0400F7B
:1013500001D0601CC4B2012000F084F8701CC6B239
:10136000082EE3DB15B9FFF778FF01E0FFF752FF26
:10137000204670BD0008014038B505460C46FFF711
:10138000D9FE8020FFF78CFFFFF714FF012801D161
:10139000002038BD2846FFF783FFFFF70BFF14201E
:1013A00000F082F8FFF7C6FE8120FFF779FFFFF714
:1013B00001FF0120FFF7AAFF8DF800000020FFF7D2
:1013C000A5FF8DF80100FFF7D6FE9DF801109DF8EE
:1013D000000001EB002020F0030020800120D8E76E
:1013E00038B504460D466946F320FFF7C5FF08B936
:1013F000002038BDBDF8000040F2DD61484340F2F6
:10140000D511C1EB204020806946F520FFF7B4FFDD
:1014100008B90020EDE7BDF8000040F27121484313
:101420003C21C1EBE03028800120E2E74FF0E021D1
:10143000096921F004014FF0E0221161C21700EBAD
:101440005272C2F3C7022B4B1A701946097801EB8E
:101450004102C2EBC1114FF6FF7202EAC101264AF6
:101460001180704700EB8002510000BF0A00A1F11B
:101470000101FBD11F4A127842434FF0E0235A6129
:1014800000229A6101221A6100BF4FF0E022116927
:1014900011F0010F02D011F4803FF6D000224FF07E
:1014A000E0231A619A6170470146134A12884A4341
:1014B0004FF0E0235A6100229A6101221A6100BFB5
:1014C0004FF0E022106910F0010F02D010F4803FBD
:1014D000F6D000224FF0E0231A619A61704742F281
:1014E000107200FB02F100BF0A00A1F10101FBD163
:1014F000704700001C0000201E00002000B587B0CF
:101500002B4801F007FC0121082000F0B7FD012164
:10151000880300F0C0FD4FF46040ADF804001820CF
:101520008DF8070003208DF8060001A9214800F07E
:1015300075FE0020ADF808004FF48270ADF80A0087
:101540000020ADF80C00ADF80E00ADF810004FF41F
:101550000070ADF812003820ADF814000020ADF88E
:1015600016000720ADF8180002A9114801F0FEFB93
:1015700001210F4801F097FC07B000BD10B50446EB
:1015800000BF02210A4801F012FD0028F9D02146CF
:10159000074801F0B9FC00BF0121054801F007FD33
:1015A0000028F9D0024801F0B1FCC0B210BD000023
:1015B00000380040000C014008B50121082000F06F
:1015C0005DFD0320ADF8000010208DF8030003201E
:1015D0008DF802006946534800F020FE08BD08B5AA
:1015E0002020ADF8000014208DF8030001208DF8B4
:1015F000020069464C4800F011FE4020ADF80000A2
:1016000014208DF8030001208DF802006946464839
:1016100000F004FE08BD08B54FF48070ADF800007E
:1016200003208DF8020010208DF8030069463E4823
:1016300000F0F4FD4FF48050ADF8000003208DF869
:10164000020010208DF803006946364800F0E6FDE0
:101650004FF48060ADF8000004208DF80300694667
:10166000304800F0DBFD4FF40060ADF800000320CF
:101670008DF8020010208DF803006946294800F01B
:10168000CDFD08BD08B50121042000F0F7FC0121C3
:10169000082000F0F3FC0121102000F0EFFC0320F3
:1016A000ADF800008DF8020010208DF803006946A7
:1016B0001C4800F0B3FD0320ADF800008DF80200D7
:1016C00048208DF803006946174800F0A7FD4FF445
:1016D0000050ADF8000003208DF8020048208DF87E
:1016E00003006946114800F099FD4FF47870ADF899
:1016F000000003208DF8020010208DF803006946D9
:10170000084800F08BFDFFF757FFFFF768FFFFF772
:1017100082FF0121042000F0B1FC0121082000F02B
:10172000ADFC08BD000C0140000801400010014064
:10173000704710B5044600BF0221F74801F037FC9E
:101740000028F9D02146F44801F0DEFB00BF01215A
:10175000F14801F02CFC0028F9D0EF4801F0D6FB4D
:10176000C0B210BD10B5FF20FFF7E3FF10BD70B58C
:1017700004464FF48051E94800F0FDFD04F07F007D
:10178000FFF7D7FFFFF7EEFF05464FF48051E34820
:1017900000F0EFFD284670BD10B5044644F4004447
:1017A0004FF48051DD4800F0E6FD2012FFF7C1FF45
:1017B000E0B2FFF7BEFF4FF48051D84800F0D9FDEA
:1017C00010BD2DE9F04106460F461546012D01DCFE
:1017D000BDE8F0814FF48051D04800F0CCFD06F018
:1017E0007F00FFF7A6FF002405E0FF20FFF7A1FF21
:1017F0003855601CC4B2AC42F7DB4FF48051C74887
:1018000000F0B7FD00BFE3E72DE9F04105460E46C5
:1018100017464FF48051C14800F0ADFD45F08000FF
:10182000FFF787FF002404E0305DFFF782FF601CB4
:10183000C4B2BC42F8DB4FF48051B84800F099FDC7
:10184000BDE8F08110B540F20910FFF7A5FF10BD0B
:1018500010B54FF48470FFF79FFF10BD10B54FF423
:10186000C470FFF799FF10BD10B541F2FF20FFF7DC
:1018700093FF10BD70B506464FF48071A84800F084
:101880007AFD4FF40061A54800F075FD642404E082
:101890000A20FFF7E7FD601EC4B2002CF8D14FF418
:1018A00080719F4800F065FD4FF400619B4800F097
:1018B00060FDFA2404E00A20FFF7D4FD601EC4B2E4
:1018C000002CF8D1FFF7C4FFFA2404E00120FFF751
:1018D000C9FD601EC4B2002CF8D1FFF7BFFF422043
:1018E000FFF745FF054629468EA001F051FE00BFD7
:1018F00006E0914931F81400FFF74EFF601CC4B2B6
:10190000032CF6DB8D490888FFF746FF40F63B3095
:10191000FFF742FF40F62340FFF73EFF884840793B
:10192000062823D1874989794FF4E85202EB011147
:1019300001F10900FFF730FF814949794FF4F05276
:1019400002EB0111C81CFFF727FF3120FFF70FFF43
:10195000054605F0F80545F0050505F54450FFF787
:101960001BFF43F20C70FFF717FF12E075498979EE
:101970004FF4E85202EB011101F10800FFF70CFFF0
:101980006F4949794FF4F05202EB0111C81CFFF77F
:1019900003FF41F6FF70FFF7FFFE4FF40050FFF723
:1019A000FBFE42F20C10FFF7F7FE44F20110FFF7C6
:1019B000F3FE42F20860FFF7EFFE43F61210FFF766
:1019C000EBFEFFF73FFF70BD10B50020FFF752FFA1
:1019D00044F68750FFF7E0FE42F2FF40FFF7DCFEDF
:1019E00044F20100FFF7D8FE41F23F10FFF7D4FEAA
:1019F000FFF73AFF0F20FFF7BAFE044604F55060E8
:101A0000FFF7CAFE40F28D10FFF7C6FE10BD10B5FD
:101A10001820FFF7ACFE0446204610BD2DE9F0412A
:101A20000546002603E00020A855701CC6B2202EF3
:101A3000F9DB1020FFF79BFE074607F55060FFF724
:101A4000ABFE0120FFF70EFD3D484079062801D18D
:101A5000152403E01320FFF78AFE04463A48047079
:101A6000224629460020FFF7ACFEFFF7FDFE0120CD
:101A7000FFF7F8FC2046BDE8F0812DE9F04104466F
:101A800000270020FFF7F6FE4FF47A70FFF7EAFC1C
:101A900044F68750FFF780FE4FF41050FFF77CFEAE
:101AA00044F24100FFF778FEFFF7DEFE41F2F71047
:101AB000FFF772FE04F50850FFF76EFE0E20FFF7E9
:101AC00056FE064606F55060FFF766FE0BE0222044
:101AD000FFF74DFE0546A54200D105E0032F02DBCE
:101AE0000020BDE8F081F2E700BF2046F9E770B5BD
:101AF00005460C460026224629460020FFF784FEB4
:101B000040F20B10FFF748FE23E0701C80B206463F
:101B1000B0F5FA5F1ADD23E000380040000C014008
:101B20000008014073783132373828563132292085
:101B3000763A253032580000BA4B0008C04B0008F6
:101B4000C84B0008CE4B0008200000200120FFF702
:101B5000ABFC4FF480610F4800F0F1FB0028D4D0BB
:101B600000BF1220FFF703FEFFF77EFEFFF76AFEBD
:101B7000B6F5FA5F01DD002070BD2046FCE710B528
:101B80000A240020FFF7F3FD0446A4F10A0084B202
:101B9000E0B210BD000C01400CB500200190009097
:101BA0004748006840F480304549086000BF444819
:101BB000006800F4003000900198401C01900098EB
:101BC00018B90198B0F5A06FF1D13D48006810F444
:101BD000003F02D00120009001E00020009000981A
:101BE000012843D13748006840F0100035490860AB
:101BF0000846006820F0030008600846006840F0CE
:101C0000020008602E4840682D4948600846406838
:101C100048600846406840F4806048600846406874
:101C200020F47C1048600846406840F4E8104860A2
:101C30000846006840F08070086000BF20480068D7
:101C400010F0007FFAD01E48406820F003001C49C5
:101C500048600846406840F00200486000BF1848ED
:101C6000406800F00C000828F9D101E000BFFEE751
:101C70000CBD10B5FFF790FF10BD10B510480068FF
:101C800040F001000E490860084640680E490840CF
:101C90000B494860084600680C490840084908603C
:101CA0000846006820F4802008600846406820F458
:101CB000FE00486000208860FFF7DBFF10BD0000D9
:101CC00000100240002002400000FFF8FFFFF6FE77
:101CD00031490143314A1160704770B5002100233A
:101CE0000F22C4780CB32D4C246804F4E064C4F5CE
:101CF000E064210AC1F10403CA40447804FA03F104
:101D00008478144021430901254C0678A1550478B4
:101D100004F01F050124AC4005786D114FF0E0265A
:101D200006EB8505C5F8004109E0047804F01F05BD
:101D30000124AC401B4D0678761145F8264070BD55
:101D4000194A0A400243154B1B1F1A60704739B1EC
:101D5000124A121D12680243104B1B1D1A6006E046
:101D60000E4A121D126882430C4B1B1D1A607047ED
:101D7000042808D14FF0E021096941F004014FF037
:101D8000E022116107E04FF0E021096921F0040130
:101D90004FF0E022116170470000FA050CED00E001
:101DA00000E400E080E100E080FFFF1FDC48006805
:101DB00040F00100DA49086008464068D949084007
:101DC000D749486008460068D7490840D4490860A8
:101DD0000846006820F4802008600846406820F427
:101DE000FE004860002088607047CD49096821F4F2
:101DF0008031CB4A11601146096821F480211160BD
:101E0000B0F5803F03D0B0F5802F0ED106E0C44975
:101E1000096841F48031C24A116007E0C04909688D
:101E200041F4A021BE4A116000E000BF00BF70472E
:101E300010B501460022002300204A11012A02D1D8
:101E4000B74C236806E0022A02D1B54C236A01E0B0
:101E5000B34C636A01F01F02012494401C4201D07C
:101E6000012000E0002010BD38B5002000900024C3
:101E7000002500BF3120FFF7DBFF05460098401C1E
:101E800000901DB90098B0F5A06FF3D13120FFF795
:101E9000CFFF08B1012400E00024204638BD0146F0
:101EA00000209F4A106820F0F80040EAC10010604E
:101EB00070479E490860704702460020984B58685A
:101EC00020F47C1042EA01031843954B5860704798
:101ED00096490866704701460020914A506820F0F4
:101EE00003000843506070478D48406800F00C00C4
:101EF0007047014600208A4A506820F0F0000843ED
:101F00005060704701460020854A506820F4E06028
:101F100008435060704701460020814A506820F411
:101F2000605040EAC1005060704729B17C4A527A43
:101F300002437B4B5A7204E0794A527A8243784BCF
:101F40005A7270477A490860704701460020744A07
:101F5000506820F440400843506070470021754AA3
:101F600011706F4A82F82010012802D0042808D18D
:101F700003E001216F4A117004E005216D4A1170E0
:101F800000E000BF00BF70476B49086070476449BC
:101F9000096A0143624A116270476749443908601F
:101FA000704730B500210022002400235C4D6D688D
:101FB00005F00C0121B1042905D0082923D105E041
:101FC0005E4D056022E05D4D05601FE0544D6D687B
:101FD00005F47012022505EB9242514D6D6805F42F
:101FE00080341CB9564D554305600BE04C4D6D686F
:101FF00015F4003F03D0524D5543056002E04F4DAC
:102000005543056002E04D4D056000BF00BF444DE3
:102010006D6805F0F00109094A4D6B5C0568DD400B
:1020200045603F4D6D6805F4E061090A454D6B5C04
:102030004568DD4085603A4D6D6805F46051C90A18
:10204000404D6B5C4568DD40C560354D6D6805F4FD
:102050004041890B3C4D6B5CC568B5FBF3F50561F0
:1020600030BD29B12E4A526902432D4B5A6104E01A
:102070002B4A526982432A4B5A61704729B1284A38
:1020800092690243264B9A6104E0254A9269824391
:10209000234B9A61704729B1214AD2690243204BF0
:1020A000DA6104E01E4AD26982431D4BDA6170474F
:1020B00029B11B4AD2680243194BDA6004E0184A7E
:1020C000D2688243164BDA60704729B1144A12690C
:1020D0000243134B1A6104E0114A12698243104B08
:1020E0001A61704714494039086070470F49C86445
:1020F00070470B49C87170470948406A40F08070CA
:1021000007494862704701460020054A92680A4222
:1021100001D0012000E0002070470149887270471B
:10212000001002400000FFF8FFFFF6FE00004242F0
:10213000D8004242201002408004424200127A003D
:1021400000093D00210000203100002010B50446A8
:10215000C549601A8C422FD009DCC448201810D021
:10216000B0F5806F16D0B0F5006F4AD11BE0B0F526
:10217000806F2AD0B0F5006F30D0B0F5406F40D1FD
:1021800035E001210420FFF793FF00210420FFF731
:102190008FFF37E001210820FFF78AFF0021082088
:1021A000FFF786FF2EE001211020FFF781FF0021BD
:1021B0001020FFF77DFF25E001212020FFF778FFA9
:1021C00000212020FFF774FF1CE001214020FFF7D1
:1021D0006FFF00214020FFF76BFF13E001218020FB
:1021E000FFF766FF00218020FFF762FF0AE0012170
:1021F0000802FFF75DFF00214FF48070FFF758FFE2
:1022000000E000BF00BF10BD10B501210846FFF778
:102210004FFF00210120FFF74BFF10BD2DE9F041DA
:10222000024600250026002000230024002791F804
:1022300003C00CF00F0591F803C01CF0100F03D081
:1022400091F802C04CEA050591F800C0BCF1000FFE
:1022500031D0146800202BE04FF0010C0CFA00F391
:10226000B1F800C00CEA03069E4220D183004FF073
:102270000F0C0CFA03F7BC4305FA03FC4CEA040408
:1022800091F803C0BCF1280F06D14FF0010C0CFAF5
:1022900000FCC2F814C00AE091F803C0BCF1480F7A
:1022A00005D14FF0010C0CFA00FCC2F810C0401C24
:1022B0000828D1D31460B1F800C0BCF1FF0F34DDA1
:1022C000546800202EE000F1080C4FF0010808FAD5
:1022D0000CF3B1F800C00CEA03069E4221D1830042
:1022E0004FF00F0C0CFA03F7BC4305FA03FC4CEA61
:1022F000040491F803C0BCF1280F05D100F1080CCB
:1023000008FA0CF8C2F8148091F803C0BCF1480F29
:1023100007D100F1080C4FF0010808FA0CF8C2F8D8
:102320001080401C0828CED35460BDE8F0814FF6E1
:10233000FF710180022181700421C1707047024643
:10234000002093680B4201D0012000E0002070477C
:102350000146886880B2704702460020D3680B426D
:1023600001D0012000E0002070470146C86880B21B
:10237000704701617047416170470AB1016100E037
:1023800041617047C16070474FF480320A438261F7
:102390008161826182698269704702460020344B04
:1023A00018684FF68073184040EA02100843304B1B
:1023B000186070472F49C8617047F0B50A4600237E
:1023C0000024002100252A4E7168C0F3034583B222
:1023D00000F44016B6F5401F08D121F07061244E7C
:1023E000766826F07066224F7E6012E000F4801658
:1023F000B6F5801F06D1032606FA05F4A14341F085
:10240000706106E0460D360103FA06F6B14341F06D
:10241000706122B1460D360103FA06F63143144EBF
:102420007160F0BD30B500228B071C0F0F2303FA3B
:1024300004F20F4B08338C1053F8243093430C4CA8
:1024400008348D1044F8253023468C1053F824307E
:102450008C07240F00FA04F42343054C08348D1034
:1024600044F8253030BD00000014014000F8FEBFE4
:10247000000001400000204210B50446D749601A10
:102480008C422BD006DCD648201813D0B0F5806FD4
:1024900038D119E0B0F5806F2AD0B0F56C4F31D14A
:1024A00001218803FFF704FE00214FF48040FFF76D
:1024B000FFFD28E001214804FFF707FE00214FF44B
:1024C0000030FFF702FE1EE001218804FFF7FDFD4A
:1024D00000214FF48020FFF7F8FD14E00121C8042B
:1024E000FFF7F3FD00214FF40020FFF7EEFD0AE0B7
:1024F00001210805FFF7E9FD00214FF48010FFF7E7
:10250000E4FD00E000BF00BF10BD2DE9F04786B03C
:1025100005460E460024A24600BF00BF00272F46F6
:102520002C8A4CF6FF700440F08804432C82AC895E
:102530004EF6F3100440B08831890843718908438E
:102540000443AC81AC8A4FF6FF400440B089044399
:10255000AC8201A8FFF725FDA248874202D1DDF831
:1025600010A001E0DDF80CA00AEBCA0000EB0A1095
:1025700031688900B0FBF1F86420B8FBF0F0040189
:102580002009642101FB1089322000EB0910B0FB07
:10259000F1F000F00F0004432C8106B0BDE8F08795
:1025A0004FF41651016000218180C18001810C210E
:1025B000418100218181704710B502460020108AB8
:1025C0004FF2FF0318400B884C8823438C88234329
:1025D000CC8823431843108210BD00210180418024
:1025E0008180C180704721B1828942F4005282818A
:1025F00004E082894DF6FF731A4082817047F0B57E
:10260000034600240026002500201846C1F342148A
:1026100001F01F06012707FA06F5012C01D10C3045
:1026200004E0022C01D1103000E014301AB1076828
:102630002F43076002E00768AF430760F0BD1AB19F
:10264000838A0B43838202E0838A8B4383827047B1
:10265000028A4FF6F0731A400282028A0A4302820B
:10266000704782894FF2FF731A40828182890A4340
:102670008281704721B1828942F00202828104E0A6
:1026800082894FF6FD731A4082817047028A4FF6A5
:10269000DF731A400282028A0A430282704721B124
:1026A000028A42F48042028204E0028A4BF6FF73FF
:1026B0001A4002827047C1F30802828070470146C7
:1026C0008888C0F308007047818941F00101818149
:1026D0007047028BD2B20283028B42EA012202834C
:1026E0007047028B02F47F420283028B0A4302830B
:1026F000704721B1828A42F02002828204E0828AFD
:102700004FF6DF731A408282704721B1828A42F00D
:102710001002828204E0828A4FF6EF731A408282AE
:10272000704721B1828A42F00802828204E0828AE4
:102730004FF6F7731A4082827047828A4FF6FB7316
:102740001A408282828A0A438282704721B1828A39
:1027500042F00202828204E0828A4FF6FD731A4040
:10276000828270470246002013880B4201D001206C
:1027700000E000207047CA430280704770B50246EF
:102780000B460024002100250020C3F3421503F06E
:102790001F01012606FA01F1012D02D1968931406F
:1027A00006E0022D02D1168A314001E0968A3140BE
:1027B0001C12012606FA04F41688344011B10CB13B
:1027C000012000E0002070BD10B5002200230A1295
:1027D00001249440A3B2DC43048010BD004C0040AF
:1027E00000BCFFBF0038014001460020FB4A1068D2
:1027F00000F03800084310607047F849096821F07C
:102800000801F64A116011460968014311607047DA
:10281000F249096821F01001F04A11601146096877
:10282000014311607047EE48EC494860ED4848604C
:102830007047EA48006940F08000E8490861704745
:102840000420E649C96811F0010F01D001200EE013
:10285000E249C96811F0040F01D0022007E0DF4906
:10286000C96811F0100F01D0032000E00420704768
:1028700008B500200090FF20009002E00098401E64
:10288000009000980028F9D108BD70B504460425D1
:10289000FFF7D6FF054605E0FFF7EAFFFFF7D0FF99
:1028A0000546641E012D01D1002CF5D104B9052582
:1028B000284670BD70B50546042440F6FF70FFF74A
:1028C000E4FF0446042C19D1C448006940F002001A
:1028D000C249086108464561006940F0400008614E
:1028E00040F6FF70FFF7D1FF0446012C06D0BB482D
:1028F000006941F6FD710840B8490861204670BD85
:1029000010B5042440F6FF70FFF7BFFF0446042C07
:1029100018D1B248006940F00400B0490861084687
:10292000006940F04000086140F6FF70FFF7ADFF1E
:102930000446012C06D0A948006941F6FB71084005
:10294000A6490861204610BD10B5042440F6FF706A
:10295000FFF79BFF0446042C3BD1A1489F498860A8
:10296000A04888600846006940F0200008610846D9
:10297000006940F04000086140F6FF70FFF785FFF6
:102980000446042C1CD19548006941F6DF710840CB
:10299000924908610846006940F010000861A520CE
:1029A000914908800F20FFF770FF0446012C10D0DA
:1029B0008A48006941F6EF7108408849086108E0DB
:1029C000012C06D08548006941F6EF710840834923
:1029D0000861204610BD70B505460E4604240F2040
:1029E000FFF753FF0446042C25D17C48006940F0D2
:1029F00001007A4908612E800F20FFF746FF044648
:102A0000042C0FD1300C68800F20FFF73EFF0446E6
:102A1000012C10D07148006941F6FE7108406F49E1
:102A2000086108E0012C06D06C48006941F6FE718F
:102A300008406A490861204670BD70B505460E46DB
:102A400004240F20FFF721FF0446042C13D1634810
:102A5000006940F00100614908612E800F20FFF7F6
:102A600014FF0446012C06D05C48006941F6FE7153
:102A700008405A490861204670BD70B505460E46AB
:102A800004240F20FFF701FF0446042C17D15448FB
:102A900052498860534888600846006940F0100039
:102AA00008612E800F20FFF7F0FE0446012C06D0AF
:102AB0004A48006941F6EF710840484908612046DC
:102AC00070BD2DE9F04704464FF6FF763746B04615
:102AD000B1460425E443E6B2C4F30727C4F307482C
:102AE0004FEA14690F20FFF7D0FE0546042D40D1B0
:102AF0003B483A4988603B4888600846006940F096
:102B000010000861FF2E06D03748083006800F20DD
:102B1000FFF7BBFE0546042D08D1FF2F06D0324833
:102B20000A3007800F20FFF7B0FE0546042D0AD1BA
:102B3000B8F1FF0F07D02C480C30A0F800800F2010
:102B4000FFF7A3FE0546042D0AD1B9F1FF0F07D008
:102B500025480E30A0F800900F20FFF796FE05469E
:102B6000012D06D01D48006941F6EF7108401B4950
:102B700008612846BDE8F08770B50546042440F694
:102B8000FF70FFF782FE0446042C4AD11448134913
:102B90008860144888600846006940F02000086199
:102BA0000846006940F04000086140F6FF70FFF7FA
:102BB0006CFE0446042C2BD10848006941F6DF71F5
:102BC0000840064908610846006940F010000861A5
:102BD00065B10020044908800BE00000002002409D
:102BE00023016745AB89EFCD00F8FF1FA5204549BC
:102BF000088040F6FF70FFF748FE0446012C10D015
:102C00004148006941F6EF7108403F49086108E01A
:102C1000012C06D03C48006941F6DF7108403A4972
:102C20000861204670BD2DE9F04107460D46164665
:102C30000424364834498860354888600F20FFF7FF
:102C400024FE0446042C1AD12F48006940F01000DD
:102C50002D49086147EA0500304340F0F800294952
:102C6000891C08800F20FFF710FE0446012C06D0B7
:102C70002548006941F6EF71084023490861204664
:102C8000BDE8F0812048C069800870471E48006A8E
:102C9000704700201C49C96911F0020F01D00120C2
:102CA00000E00020704700201749096811F0200F4C
:102CB00001D0012000E00020704729B1124A1269BA
:102CC0000243114B1A6104E00F4A126982430E4B12
:102CD0001A61704701460020012908D10A4AD269C9
:102CE00012F0010F01D0012008E0002006E0064AA2
:102CF000D2680A4201D0012000E00020704702495A
:102D0000C860704700F8FF1F00200240230167459C
:102D1000AB89EFCD10B50446BD4820180FD0B0F5F3
:102D2000806F16D0B0F5784F1DD101210803FFF751
:102D3000BFF900214FF48050FFF7BAF914E00121E8
:102D40008803FFF7C2F900214FF48040FFF7BDF977
:102D50000AE00121C803FFF7B8F900214FF4004051
:102D6000FFF7B3F900E000BF00BF10BD10B50022AF
:102D7000028802F441520B884C8823438C882343F9
:102D8000CC8823430C8923434C8923438C892343D8
:102D9000CC8923431A430280838B4FF2FF74234074
:102DA00083830B8A038210BD2DE9F04786B0054668
:102DB0000C464FF0000902274FF000084FF0010ABF
:102DC0000026A88B4FF240010840A88302202884E7
:102DD000B5F81C902089022801D100BF31E0A088FD
:102DE00010B94FF0010A01E04FF0020A01A8FFF705
:102DF000D8F8E088B0F5007F0AD1019800EB800098
:102E0000400021890902B0FBF1F0401D86B20BE0C1
:102E10004FEA4A1021894843019901EB8101490099
:102E2000B1FBF0F0401D86B20A20B6FBF0F606F0CA
:102E30000108A6EB0800C0F34F074FF6FF7000EA49
:102E40000828022F01DBFF2F02DD02274FF00008C8
:102E500047EA0800E18808432884208840F400609D
:102E600061880843A18808436189084340EA090949
:102E7000A5F81C9006B0BDE8F087002101804180D4
:102E80008180C180018141818181C18107210182CD
:102E900070470021018041808180C1800221018131
:102EA00000214181704721B1028842F04002028036
:102EB00004E002884FF6BF731A400280704721B1C8
:102EC000828B42F48062828304E0828B4FF6FF3370
:102ED0001A408283704730B5002400230C1101256D
:102EE000A540ABB21AB185881D43858002E0858874
:102EF0009D43858030BD1AB183880B43838002E0F7
:102F000083888B438380704781817047014688891D
:102F10007047A1F57E42FF3A04D0028842F48072E5
:102F2000028004E002884FF6FF631A400280704777
:102F300021B1828842F00402828004E082884FF648
:102F4000FB731A408280704702884FF2FF731A4069
:102F5000028002880A4302807047018841F4805150
:102F60000180704721B1028842F40052028004E0DF
:102F700002884DF6FF731A40028070470246002017
:102F8000012901D0108B00E0908A70470146088A21
:102F90007047B1F5804F04D1028842F4804202802C
:102FA00004E002884BF6FF731A4002807047024625
:102FB000002013890B4201D0012000E0002070475F
:102FC000CA4302817047F0B5024600200024002366
:102FD000002501F00F070126BE40B4B20B110126F7
:102FE0009E40B3B2968806EA03051689264202D0AF
:102FF0000DB1012000E00020F0BD10B5002201F06D
:103000000F040123A3409AB2D343038110BD0000F3
:1030100000C8FFBFD2B201E000F8012B491EFBD26D
:1030200070470022F6E710B513460A4604461946D3
:10303000FFF7F0FF204610BD2DE9F04D81EA0304B3
:1030400004F0004B21F0004514464FF0000A23F035
:10305000004150EA050220D054EA01021DD0C5F318
:103060000A570246C5F31303C1F31300C1F30A560E
:1030700040F4801543F48013A7EB0608101BD646D6
:1030800008F2FD3873EB050002D308F1010801E0F6
:1030900092185B41B8F1000F03DA00200146BDE849
:1030A000F08D00204FF48011064684460EE0171B79
:1030B00073EB050705D3121B63EB050306434CEACC
:1030C000010C49084FEA300092185B4150EA0107B1
:1030D000EDD152EA030012D082EA040083EA05012E
:1030E000084303D100224FF0004308E0101BAB411E
:1030F00002D20122002302E06FF0010253101AEB0A
:1031000006004CEB085110EB0A0041EB0B01BDE847
:10311000F04D00F054B80EB540F233410291002159
:10312000CDE900110A460B4600F056F803B000BD89
:1031300030B50B46014600202022012409E021FA87
:1031400002F59D4205D303FA02F5491B04FA02F584
:103150002844151EA2F10102F1DC30BD2DE9F05F1B
:103160000546002092469B468846064681464024F6
:103170001BE0284641464746224600F0E6F9534602
:103180005A46C01A914110D311461846224600F003
:10319000CDF92D1A67EB01084F4622460120002188
:1031A00000F0C4F917EB00094E41201EA4F1010400
:1031B000DFDC484631462A464346BDE8F09F10B55D
:1031C000002B08DA401C41F1000192185B411A43C0
:1031D00001D120F0010010BD2DE9F04D92469B4633
:1031E00011B1B1FA81F202E0B0FA80F220329046D9
:1031F00000F09CF904460F4640EA0A0041EA0B0140
:1032000053465A46084303D120463946BDE8F08D5F
:10321000114653EA010015D0C8F14002504600F0B3
:1032200094F905460E4650465946424600F07EF94E
:10323000084301D0012000E00020054346EAE07683
:103240002C4337430A984FEA4453A0EB08004FEA57
:10325000D4240A304FF0000244EA47544FEAD725FD
:1032600002D500200146D1E7010510196941DDE9C9
:10327000084500196941BDE8F04DA0E72DE9FE4F72
:10328000804681EA0300C00F0C46009021F0004107
:1032900023F00045B8EB0200A94105D24046214683
:1032A00090461C460B46024623F00040104304D1D2
:1032B0004046214603B0BDE8F08F270DC7F30A0052
:1032C000C3F30A510290401A0190402866DAC3F312
:1032D000130040F4801B0098924620B10023D2EBEB
:1032E000030A63EB0B0B01985946C0F140025046AC
:1032F00000F01CF906460D4650465946019A00F06A
:1033000034F910EB08006141002487EA115284EA85
:10331000E7731A433BD0009A3AB3019A012A4FEA65
:10332000075210DC001B61EB02014FF0004202EA81
:103330000752CDE90042001C41F5801132462B4670
:10334000FFF74AFFB6E7001B61EB0201001C41F5E5
:10335000801300185B412018A2F5001747EB03010A
:1033600040EAD570B6196D4111E06D084FEA360696
:1033700045EAC0754FEA0752001B61EB0201001CD1
:1033800041F5801149084FEA300000195141324699
:103390002B4603B0BDE8F04FFFF711BF00980122A4
:1033A00040000023D0EB020263EBE073009821465B
:1033B0004FEAE074B8EB000061EB0401E9E783F049
:1033C00000435BE781F0004158E72DE9FE4F81EAB9
:1033D000030404F0004421F0004100944FF0000B7E
:1033E00023F0004350EA010402D052EA030404D15E
:1033F0000020014603B0BDE8F08FC3F30A54C1F3C7
:103400000A552C44A4F2F3340194A0FB0254C1F3F6
:10341000130141F48011C3F3130343F4801301FB40
:10342000024400FB034E840A970A44EA815447EAA7
:103430008357A4FB076802958D0A05FB07854FEAB1
:10344000932C04FB0C542705029D4FEA065847EACB
:103450001637B5EB08056EEB070C870E920E47EAA0
:10346000811742EA8312A7FB0201B6EB0B0164EB62
:1034700000042B0D43EA0C335E1844EB1C50DA4673
:103480005146E7FB0201C5F313044FEA0B3343EA4D
:1034900014534FEA0432019C43EA0603A4F10C04DE
:1034A0000294009CCDE900B4FFF796FEA2E7C1F3B9
:1034B0000A52C1F3130140F2FF3341F480119A42E2
:1034C00002DA00200146704740F233439A42A2F2EA
:1034D000334202DC524200F038B800F027B8000056
:1034E00030B5002904DB4FF00044404264EB010199
:1034F000002B04DB4FF00044524264EB030399427B
:1035000008BF904230BD0000064C074D06E0E06861
:1035100040F0010394E8070098471034AC42F6D31A
:10352000FCF70AFEF84B0008184C0008202A04DBC0
:10353000203A00FA02F1002070479140C2F12003C6
:1035400020FA03F3194390407047202A04DB203A05
:1035500021FA02F00021704721FA02F3D040C2F1B3
:1035600020029140084319467047202A06DBCB17FA
:10357000203A41FA02F043EAE07306E041FA02F32E
:10358000D040C2F120029140084319467047000024
:103590000FB4054B10B503A9044A029800F0E2F8F5
:1035A00010BC5DF814FB0000E51000083800002096
:1035B0000FB4084B10B504A902AA039800F0D2F882
:1035C000044602A9002000F070FC204610BC5DF803
:1035D00014FB0000AB3E0008014B024A00F0C2B8E9
:1035E000E51000083800002002E008C8121F08C1DA
:1035F000002AFAD170477047002001E001C1121F74
:10360000002AFBD1704700002DE9FF5FDDE90220B1
:10361000010DDDF838B0024310D10F9801244CA2FF
:10362000012808D0002100980F9BC0E90021C0E9C3
:103630000243BDE8FF9F6FEA0B01F4E7A1F2FF31FF
:1036400044F6105041430D140F9801280ED0A5EBFD
:103650000B00401C4FF000043E4EDFF8FC90B0F130
:10366000000AA04605DACAF1000717E0CBF1000016
:10367000F0E7074612E0F80707D0224633464046F7
:103680004946FFF7A2FE8046894622463346104649
:103690001946FFF79AFE04460E467F10002FEAD126
:1036A000DDE90201BAF1000F42464B4602DAFFF7AC
:1036B0008CFE01E0FFF7C0FC04460E460022274BBB
:1036C000FFF70EFF03D84FF0FF30014607E000225E
:1036D000234B20463146FFF7D1FDFFF7E8FE1024CB
:1036E00009E0002C0ADB0A220023FFF737FD019BCB
:1036F00030321A55641E50EA0102F2D1641C019A5C
:10370000C4F1110314440F9A012A09D0012208437D
:1037100001D15B450FDD4FF0000205F101050DE021
:10372000084303D1A3EB0B056D1E09E000204FF009
:10373000110B0F9088E701DA00226D1E002A83D05A
:1037400000980F99C0E90231C0E9004571E7000017
:1037500030000000000024400000F03F0000F04373
:103760000000E03F2DE9FF4F95B09B468946064695
:10377000002512E2252878D10024761CF94A274634
:10378000012105943378203B01FA03F0104202D066
:103790000443761CF6E730782A2811D06FF02F0307
:1037A0003078A0F13002092A16D8059A44F00204B4
:1037B00002EB820203EB42021044761C0590EFE715
:1037C00059F8042B0592002A03DA504244F40054BD
:1037D000059044F00204761C30782E2816D116F895
:1037E000010F44F004042A280DD06FF02F02307826
:1037F000A0F13003092B09D807EB870302EB430341
:10380000C718761CF3E759F8047B761C30786C28CF
:103810000FD006DC4C2817D068280DD06A2814D1A8
:1038200004E0742810D07A280FD10DE044F400147D
:103830000AE044F4801401E044F4401472788242B7
:1038400002D1761C04F58014761C307866280BD0E3
:1038500013DC582877D009DC002875D04528F6D02D
:103860004628F4D047281AD19FE118E0632835D0C4
:10387000642879D0652812D197E1702873D008DCCC
:103880006728F1D069286FD06E280DD06F2806D137
:10389000B5E073282CD0752875D0782874D05A4696
:1038A000179990476D1C76E1C4F30250022809D0A5
:1038B00003280DD0D9F8001004280DD00D6009F1AF
:1038C000040968E1D9F80010EA17C1E90052F6E7E7
:1038D000D9F800100D80F2E70D70F0E719F8041B1D
:1038E0008DF8001000208DF80100EA46012003E069
:1038F00059F804AB4FF0FF3061074FF0000102D4DC
:103900000DE008F101018846B9420FDA8045F8DB85
:103910001AF808100029F4D108E008F101018846DE
:103920008142FADB1AF808100029F6D105985B46A7
:10393000A0EB080721463846179A00F09EFA284463
:1039400000EB080507E04DE02BE10DE01AF8010B54
:103950005A4617999047B8F10108F7D25B462146BD
:103960003846179A14E142E00A220092C4F3025248
:103970004FF0000A022A08D059F804CB032A4FEA74
:10398000EC710AD00DE029E02AE009F1070121F0ED
:103990000702F2E802C1914609E00FFA8CFC4FEAF7
:1039A000EC71042A03D14FFA8CFC4FEAEC71002928
:1039B00007DA0A460021DCF1000C61EB02012D223E
:1039C00002E0220504D52B228DF80420012203E019
:1039D000E20701D02022F7E7904653E00A2102E0F7
:1039E00010220DE010214FF0000A00910BE0102290
:1039F0004FF0000A44F004040827009203E0082274
:103A00004FF0000A0092C4F30252022A05D059F87E
:103A100004CB0021032A08D009E009F1070121F0B5
:103A20000702F2E802C1914605E01FFA8CFC042A65
:103A300001D10CF0FF0C4FF00008220722D57028AE
:103A400027D0009B83F0100353EA0A0309D15CEAF4
:103A5000010206D030228DF804208DF805000222E4
:103A60009046009B83F0080353EA0A030AD15CEAFC
:103A7000010201D1620705D530228DF804204FF0F4
:103A800001087F1E582809D037A003900EA8029085
:103A900013E040228DF804200122E1E737A0F4E78B
:103AA00053466046009AFFF759FB84460398825CB0
:103AB0000298A0F10100029002705CEA0100EFD1CF
:103AC000029806A9A1EB000000F1200A600702D5C8
:103AD00024F4803400E00127574502DDA7EB0A00FB
:103AE00000E0002000EB0A01009005984144A0EBA3
:103AF00001000590E00306D45B462146179A05981D
:103B000000F0BBF90544002706E001A85A46C05D55
:103B1000179990476D1C7F1C4745F6DBE0030CD5D9
:103B20005B462146179A059800F0A7F9054404E082
:103B300030205A46179990476D1C0099481E0090F6
:103B40000029F5DC08E0029802995A460078491CE1
:103B50000291179990476D1CBAF10001AAF1010A70
:103B6000F1DC6BE10928010030313233343536376E
:103B700038396162636465660000000030313233B9
:103B80003435363738394142434445460000000059
:103B900000F060F9054406F10106307800287FF452
:103BA000E9AD19B02846BDE8F08F620700D40627BA
:103BB00009F1070222F0070CFCE80223E14603F0BA
:103BC00000485FEA080C02D00FF27C2C0DE05FEA9F
:103BD000045C02D50FF2742C07E05FEAC47C02D0CB
:103BE0000FF26C2C01E0AFF2700C4FF0FF3823F0B5
:103BF0000043CDF850C065280CD006DC452809D01C
:103C000046281DD047283ED13EE0662818D06728B8
:103C100039D139E00021112F01DB112000E0781C9F
:103C2000CDE9000106A90EA8FFF7EEFCDDE90F01C2
:103C30000E9A03910021009207F1010A04914EE0CF
:103C40004FF000400097CDE9011006A90EA8FFF73C
:103C5000DBFCDDE90F0203920E9B11990022DDF8D7
:103C60000CA00093049219B907F1010100EB010ABD
:103C7000B7EB0A0004D4C0F1FF3007F1010A049049
:103C8000AAEB0700019046E0012F00DA012700218E
:103C9000112F01DD112000E03846CDE9000106A911
:103CA0000EA8FFF7B1FCDDE90F010E9A0391002188
:103CB00004910092BA4621070CD40399514500DAC9
:103CC0008A46BAF1010F05DD009AAAF10101515CA3
:103CD000302908D0B84202DA10F1040F06DA0121C7
:103CE000CDE9011017E0AAF10101E9E7002805DCA0
:103CF000049901440491AAEB000102E0411C5145E2
:103D000000DD8A460499A0EB010000F1010001905A
:103D10004FF000400290200704D40198504501DB89
:103D2000CDF8048000208DF84F0002980DF14F0768
:103D3000B0F1004F25D02B200E9002984FF00208D2
:103D400000280CDA404202902D200E9007E00A2154
:103D50000298FFF7EDF93031029007F8011DB8F134
:103D60000001A8F10108F2DC02980028EFD1791EC9
:103D70000E980870307800F0200040F0450007F8F9
:103D8000020D12A8A0EB070000F1070814980078B4
:103D900000B1012000EB0A01019801EBE0710598E8
:103DA0004144A0EB0100A0F101000590E00306D41E
:103DB0005B462146179A059800F05FF80544149871
:103DC000007820B15A461799904705F10105E003A4
:103DD00023D55B462146179A059800F04EF8054416
:103DE0001BE00498002807DBDDE90301884203DDBE
:103DF0000098405C179901E0179930205A46904787
:103E000004986D1C401C04900198401E019004D140
:103E10002E205A46179990476D1CBAF10001AAF15D
:103E2000010ADEDC05E017F8010B5A4617999047A6
:103E30006D1CB8F10001A8F10108F4DC5B462146D5
:103E4000179A0598A4E600002D0000002B00000042
:103E5000200000002DE9F041044600251E461746CB
:103E6000880405D406E039462020B04705F1010555
:103E7000641EF8D52846BDE8F0812DE9F0410446DE
:103E800000251E469046C80301D5302700E02027B4
:103E9000880405D506E041463846B04705F10105DE
:103EA000641EF8D52846BDE8F0810A68531C0B60F3
:103EB000107070470000000000000000002F00009C
:103EC00000000700070000147F147F1400242A7FDD
:103ED0002A1200626408132300364955225000005C
:103EE0000503000000001C224100000041221C00CC
:103EF0000014083E08140008083E0808000000A04E
:103F00006000000808080808000060600000002049
:103F100010080402003E5149453E0000427F400027
:103F2000004261514946002141454B3100181412AD
:103F30007F10002745454539003C4A49493000017A
:103F40007109050300364949493600064949291EC9
:103F5000000036360000000056360000000814222B
:103F6000410000141414141400004122140800022B
:103F70000151090600324959513E007C1211127C50
:103F8000007F49494936003E41414122007F41417D
:103F9000221C007F49494941007F09090901003E6F
:103FA0004149497A007F0808087F0000417F4100AD
:103FB000002040413F01007F08142241007F404023
:103FC0004040007F020C027F007F0408107F003E0B
:103FD0004141413E007F09090906003E4151215EF1
:103FE000007F091929460046494949310001017FEE
:103FF0000101003F4040403F001F2040201F003F84
:104000004038403F00631408146300070870080735
:1040100000615149454300007F414100000204080E
:104020001020000041417F00000402010204004012
:1040300040404040000001020400002054545478E5
:10404000007F484444380038444444200038444405
:10405000487F00385454541800087E0901020018A3
:10406000A4A4A47C007F080404780000447D4000E0
:10407000004080847D00007F102844000000417FC4
:104080004000007C04180478007C080404780038A0
:104090004444443800FC242424180018242418FC28
:1040A000007C0804040800485454542000043F4491
:1040B0004020003C4040207C001C2040201C003C54
:1040C0004030403C004428102844001CA0A0A07CA4
:1040D000004464544C44141414141414BBE3EEA3AD
:1040E000CEA2CDA8BFC6BCBCCEC2CAAAB6C8B7A213
:1040F000CBCDBDD3CAD5CEDECFDFC4A3BFE9D3A617
:10410000B4F0B3C9B9A6CAA7B0DCCFB5CDB3B3F587
:10411000CABCBBAFB4EDCEF3D3D0B5A5B4CEC1AC61
:10412000D0F8C7D0BBBBC4A3CABDB7C7CEAAB5BD64
:1041300000002044CC2000F808080808080400000B
:10414000087E0100003F4040404040200000003811
:104150009070B06EB6B474B49C0000000405027F89
:104160006A6A6A6A7F020202000008C424B8A8BE14
:10417000B8C0F826E0100000017F00300E825E49D2
:10418000231C2740000040CC4000F0A4A4FCA4A4C1
:10419000F0000000201F10205F42425F42425F405B
:1041A00000000048FC444200881000FE02000000AD
:1041B0000C027F010308080504FF04020000101030
:1041C000FE1090909090FE909010000002417F8130
:1041D000804027281826414000002004F810FC9455
:1041E000949494FC00000000007E417E427E424296
:1041F0007E427E4000002044E010FC94949494940D
:10420000FC000000247F40425C407F407F484542E4
:10421000000000F84848E8584648F84828000040A0
:1042200038878080444D35354D42404000000018AD
:1042300024A07C22202224AC2000000040308C836B
:104240004127191927614040004040C4488080A49C
:10425000A8F0A8A690800000201F102030484643F8
:104260004444580000001010FE909098A88E689862
:104270008848000002423F82824E53321A26624230
:104280000000F00000FE8070EE2220E02010000010
:104290000F04047F804023141C236040000000842E
:1042A000848484FC84848484444000008040201002
:1042B0000E013F404040407800006058C66030200A
:1042C0002CF2242C90800000242724144341211F29
:1042D00019254270000000E0FE9828E8BEA8A8BE9C
:1042E000E800000C03007F88884B2A1E1A2A4F48DA
:1042F00000000040FE201010FC1210F01000000022
:1043000010108F4A22120F060A316241000000F895
:10431000088808488E080808C8080000300F0040C8
:104320004740402758472020000020100EB848285A
:10433000588E8838080800000202794A4A4A4A49D9
:104340007A090103000000F0101010107E94121C76
:10435000D0100000700F11113F4020171C33607007
:1043600000000010F010102820F02E2020E00000A7
:1043700010080F884420180740407E01000080602C
:104380001C2020FC2220201000000000814141312F
:104390000907030D112141410000FC04F404FCC095
:1043A00070AE20E02010000027180704BB40201743
:1043B0000C33604000000000446454CC4444A2121A
:1043C000020000004020121F0B427E020A1133201F
:1043D00000006058C6201088681A0C88C888000041
:1043E0002213129242211F01017F40710000101020
:1043F000D22C900808F8080808F8000002017F0194
:1044000042300E0100407E01000000F02EA07040FE
:10441000704C424050E000004324180F30007E42B0
:1044200042427F0200008040F8060000FE008060EB
:104430001000000001007F0804043E414040407825
:1044400000006058D45090907E90907E9040000084
:1044500002027F2202764A4A4A4A7F000000008414
:10446000C80080BCA4A4A4A4FC80000000003F8C71
:1044700044241C070C3464420000080888E8584EA5
:10448000484848C8080800000201007F0A0A0A4A92
:10449000CA7F000000000000F0929CF0989492F017
:1044A00000000000080C0B0A0AFF0A0A0A0B0808A1
:1044B00000000004F810C0302EE020202010000082
:1044C000003F804120100E010E1060400000404C63
:1044D000C00888F88CEAA8888808000020101F24EB
:1044E0002444447F4444440200006058C4302028DF
:1044F000A87EAA2868200000242724A4814A281F17
:104500001828680400004040FC40382808F80808D3
:10451000E818000000001F4844340C0300407F00EE
:1045200000001010FED020D846E85848E0000000F7
:1045300002417F8444231C071C246342000000E0E6
:10454000FE9828E8BEA8A8BEE800000C03007F88FB
:10455000884B2A1E1A2A4F4800000020202020A045
:104560002CF22024181000006021211F11100107D7
:1045700018204070000010101010FE0000FE1010F7
:1045800090100000080809097F00007F0909080C45
:1045900000000040445840F84640404040E00000E1
:1045A000404030080601010246407C0300000464DC
:1045B00054CC4464C400F80000FE00004044243F92
:1045C000242422000F40C03F000000000000000033
:1045D000000000000000000000000000F8000000E3
:1045E00000000000333000000000100C06100C0624
:1045F00000000000000000000040C07840C078408B
:1046000000043F04043F040400007088FC083000EC
:1046100000001820FF211E0000F008F000E0180044
:104620000000211C031E211E0000F00888700000FD
:10463000001E2123241927211010160E000000004F
:10464000000000000000000000000000E01804026C
:1046500000000000071820400000020418E00000DD
:10466000000040201807000000404080F0804040DB
:10467000000202010F01020200000000F000000031
:10468000000101011F010101000000000000000005
:104690000080B0700000000000000000000000007A
:1046A0000000010101010101010000000000000003
:1046B00000003030000000000000000000806018A2
:1046C00004006018060100000000E010080810E077
:1046D00000000F102020100F00001010F800000044
:1046E000000020203F20200000007008080888708B
:1046F000000030282422213000003008888848300B
:10470000000018202020110E000000C02010F8002A
:104710000000070424243F240000F80888880808C3
:10472000000019212020110E0000E01088881800D8
:1047300000000F112020110E0000380808C83808AA
:10474000000000003F00000000007088080888702A
:1047500000001C222121221C0000E010080810E0AB
:10476000000000312222110F00000000C0C0000034
:104770000000000030300000000000008000000059
:104780000000008060000000000000804020100851
:10479000000001020408102000404040404040401A
:1047A00000040404040404040000081020408000F5
:1047B000000020100804020100007048080808F0FA
:1047C000000000003036010000C030C828E810E0CA
:1047D000000718272423140B000000C038E0000055
:1047E00000203C23020227382008F88888887000BF
:1047F00000203F202020110E00C030080808083893
:1048000000071820202010080008F808080810E009
:1048100000203F202020100F0008F88888E80810AA
:1048200000203F20202320180008F88888E808107E
:1048300000203F200003000000C0300808083800B6
:104840000007182020221E020008F808000008F8BF
:1048500008203F210101213F20000808F808080036
:10486000000020203F2020000000000808F8080871
:1048700000C08080807F00000008F888C0281808E9
:1048800000203F20012638200008F8080000000022
:1048900000203F20202020300008F8F800F8F80819
:1048A00000203F003F003F200008F830C00008F81B
:1048B00008203F200007183F00E01008080810E01B
:1048C000000F10202020100F0008F808080808F03A
:1048D00000203F210101010000E01008080810E05D
:1048E000000F18242438504F0008F88888888870F2
:1048F00000203F2000030C30200070880808083892
:10490000000038202121221C00180808F808081887
:10491000000000203F2000000008F808000008F810
:1049200008001F202020201F000878880000C838B9
:1049300008000007380E010000F80800F80008F829
:1049400000033C0700073C030008186880806818D3
:104950000820302C03032C30200838C800C8380841
:10496000000000203F2000000010080808C8380898
:10497000002038262120201800000000FE0202023C
:10498000000000007F40404000000C30C0000000EC
:1049900000000000010638C00000020202FE000014
:1049A00000004040407F00000000000402020204BA
:1049B00000000000000000000000000000000000F7
:1049C00000808080808080808000020204000000DF
:1049D00000000000000000000000008080808000D7
:1049E000000019242222223F2008F80080800000C5
:1049F00000003F112020110E000000008080800088
:104A000000000E112020201100000000808088F896
:104A100000000E112020103F2000008080808000C8
:104A200000001F222222221300008080F088888844
:104A3000180020203F20200000000080808080801F
:104A400000006B94949493600008F80080808000CC
:104A500000203F210000203F2000809898000000A7
:104A6000000020203F2020000000000080989800D7
:104A70000000C08080807F000008F80000808080F7
:104A800000203F24022D302000000808F80000001C
:104A9000000020203F2020000080808080808080D7
:104AA00000203F20003F20003F8080008080800069
:104AB00000203F210000203F2000008080808000F7
:104AC00000001F202020201F008080008080000028
:104AD0000080FFA12020110E000000008080808057
:104AE00000000E112020A0FF808080800080808048
:104AF0000020203F21200001000000808080808075
:104B0000000033242424241900008080E0808000E9
:104B1000000000001F202000008080000000808036
:104B200000001F202020103F208080800000808017
:104B30008000010E30080601008080008000808027
:104B4000800F300C030C300F0000808000808080CC
:104B5000000020312E0E31200080808000008080F7
:104B60008080818E701806010000808080808080A7
:104B7000000021302C2221300000000000807C0247
:104B80000200000000003F404000000000FF000065
:104B90000000000000FF0000000002027C80000016
:104BA000000040403F000000000006010102020436
:104BB000040000000000000000006C0680070008F0
:104BC000FF09FC09F909F6090708090A0B0C00019D
:104BD0000203040506070809313233343536373805
:104BE00039304142434445464748494A4B005358AF
:104BF0003132373800000000184C00080000002057
:104C00003C000000E8350008544C00083C0000203F
:104C1000C4020000F8350008EE4B00080000000058
:104C200001007B00C801000000000000000000003F
:104C3000000000000000000000000000000102036E
:104C40000401020304060708090204060800000024
:044C50000000000060
:0400000508000131BD
:00000001FF
