:020000040800F2
:100000000004002047010008710D0008730D00086E
:10001000770D00087B0D00087F0D00080000000030
:10002000000000000000000000000000830D000838
:10003000850D000800000000870D0008890D0008EC
:1000400067010008670100086701000867010008F0
:1000500067010008670100086701000867010008E0
:1000600067010008670100086701000867010008D0
:1000700067010008670100086701000867010008C0
:1000800067010008670100088B0D00086701000880
:1000900067010008670100086701000867010008A0
:1000A0006701000867010008670100086701000890
:1000B0008D0D00086701000867010008670100084E
:1000C0006701000867010008670100086701000870
:1000D000670100083B1A0008670100086701000873
:1000E0006701000867010008670100086701000850
:1000F0006701000867010008670100086701000840
:10010000670100086701000867010008670100082F
:10011000670100086701000867010008670100081F
:10012000670100086701000867010008670100080F
:10013000DFF80CD005F068FB00480047A10A000872
:1001400098080020704708488047084981F30888CC
:1001500007480047FEE7FEE7FEE7FEE7FEE7FEE7AB
:10016000FEE7FEE7FEE7FEE74501000898080020ED
:10017000310100083EB50446FEA000680290FEA1D1
:1001800003C9CDE9000124B1012C03D0FF2C0BD110
:1001900005E00AE0032102A801F0F7F805E00621D6
:1001A000684601F0F2F800E000BF00BF3EBD10B5A8
:1001B000F34800780A38072843D2DFE800F0040546
:1001C000061D293541003CE03BE0EEA20521082058
:1001D00004F0E1FEEE4805218268082004F07EFF6D
:1001E000E8A214210D2004F0D6FEE948142182680B
:1001F0000D2004F073FF24E0E6A20921032004F09F
:10020000DEFEE3480921C268032004F0D0FF18E0B5
:10021000E0A207210A2004F0BEFEDD4807210269A2
:100220000A2004F078FF0CE0D6A205210C2004F08F
:10023000B2FED748052142690C2004F04FFF00E0D0
:1002400000BF00BF10BD10B5D44890F820020128AF
:1002500004D002281AD003284AD130E0D04A3021F5
:10026000062000F058FECE4A20324021062000F041
:1002700052FECB4AC0325021062000F04CFEC84A44
:10028000E0326021062000F046FE31E0C44A4032F0
:100290003021062000F03FFEC14A60324021062096
:1002A00000F039FEBE4AC0325021062000F033FE75
:1002B000BB4AE0326021062000F02DFE18E0B84A6B
:1002C00080323021062000F026FEB54AA0324021BF
:1002D000062000F020FEB24AC0325021062000F075
:1002E0001AFEAF4AE0326021062000F014FE00BF83
:1002F00000BF10BD10B54FF47A72B0FBF2F20A23C2
:10030000B2FBF3F403FB142230320A706422B0FB18
:10031000F2F2B2FBF3F403FB142230324A700A22E9
:10032000B0FBF2F2B2FBF3F403FB142230328A701A
:100330000A22B0FBF2F302FB13023032CA7010BD86
:1003400030B585B097A207CA02AB07C39348D0F86F
:100350001C0242F21071B0FBF1F201FB120569467A
:100360002846FFF7C7FF002409E01DF804003028E5
:1003700000D006E020200DF80400601CC4B2042C5C
:10038000F3DB00BF0098039002AA2021042000F0B4
:10039000B6FE05B030BD10B56422B0FBF2F20A2300
:1003A000B2FBF3F403FB142230320A700A22B0FBD2
:1003B000F2F2B2FBF3F403FB142230324A700A2249
:1003C000B0FBF2F302FB130230328A7010BD70B53D
:1003D00086B077A207CA03AB07C3704800684FF422
:1003E0007A71B0FBF1F0B0FBF1F201FB12056B4842
:1003F0000068B0FBF1F201FB120601A92846FFF7E5
:10040000CAFF002409E001A8005D302800D006E002
:10041000202001A90855601CC4B2032CF3DB00BFE7
:10042000032C02D120208DF81000BDF80400ADF897
:100430000D009DF806008DF80F0001A93046FFF76A
:10044000AAFFBDF80400ADF811009DF806008DF874
:10045000130003AA2021022000F051FE06B070BD57
:100460002DE9F84F4D49086805F0F1F882464B48F0
:1004700000685249884210D8504605F001F90746F5
:100480004F4A504B05F074F8054605F00CF98246CA
:100490000D204D4981F8B90035E0404800684B49CE
:1004A000884210D8504605F0EBF80546484A494BBB
:1004B00005F05EF8074605F0F6F882460B20424943
:1004C00081F8B9001FE0354800684349884209D8DF
:1004D0004249504605F00CF882460A203A4981F814
:1004E000B90010E02D4800683D49884209D83D49CF
:1004F000504604F0FDFF82460820334981F8B900D8
:1005000001E0BDE8F88F504605F0A6F800F0FF09BD
:10051000A9F1010000F0FF09484605F098F80546EA
:10052000514604F0ACFF83464FF09241584604F028
:10053000A9FF8346584605F08FF80446C4F3130418
:100540008DF80090200C8DF80100200A8DF8020033
:10055000E0B28DF803009DF800001B4981F804010A
:100560009DF8010081F805019DF8020081F806015F
:100570003AE000004F4B0D004552524F520D000023
:1005800080000020202020202020202000000000CB
:10059000000400202020202020200000D80100207E
:1005A000EAA200083A20202031303030000000005C
:1005B0003A3433352E30303000000000400D030057
:1005C000732EC55555EDA04092000020801A0600FC
:1005D000C7681D5555EDB04060AE0A000020CB4500
:1005E0009005100000204B469DF8030081F807019C
:1005F00000BF86E710B5F8480068F849884202D87D
:100600004FF0FF3010BDF4480068F549884202D928
:100610004FF0FF30F6E7F048D0F81C02012807D071
:100620000A2818D0642829D0B0F57A7F34D12CE07C
:10063000E9480068EB49884206D840F20D12EA49C1
:10064000EA4804F0B5FE05E040F20D12E849E7483B
:1006500004F0AEFE20E0E0480068E649884206D893
:1006600040F20D12E449E14804F0A2FE05E040F238
:100670000D12E249DD4804F09BFE0DE040F20D1240
:10068000DF49DA4804F094FE06E040F20D12DD493D
:10069000D64804F08DFE00BF00BF0020B2E710B5C1
:1006A000CD480068CD49884202D84FF0FF3010BDD8
:1006B000C9480068CA49884202D94FF0FF30F6E7BE
:1006C000C548D0F81C02012807D00A2824D0642885
:1006D00041D0B0F57A7F4CD144E0BF480068CA49A8
:1006E000884206D840F20D12C849C04804F060FEA6
:1006F00011E0B9480068C649884206D840F20D1298
:10070000C449BA4804F054FE05E040F20D12C24953
:10071000B64804F04DFE2CE0AF480068BF4988425F
:1007200006D840F20D12BE49B04804F041FE11E077
:10073000A9480068BB49884206D840F20D12BA4960
:10074000AA4804F035FE05E040F20D12B749A7486B
:1007500004F02EFE0DE040F20D12B549A34804F05E
:1007600027FE06E040F20D12B249A04804F020FE38
:1007700000BF00BF00209AE710B504469648006805
:10078000AD49884215D9944800684900884202D88A
:10079000FFF785FF0DE0904800689149884202D834
:1007A000FFF728FF05E08C480068A449884200D97B
:1007B00010BD00BFFCE71CB504462046FFF7DCFF78
:1007C0002046FFF74DFE01F061FE0A2001F09EF980
:1007D00001F099FE0A2001F099F9032000210B464F
:1007E0000A46CDE90010084601F09BFF0A2001F0FF
:1007F0008DF91CBD9249784A11606FF07C015160FF
:1008000000219160D1601161002005E00022724951
:10081000143141F82020401CC828F7DB00216E4A23
:1008200082F81412FF21C2F818120A21C2F81C1211
:10083000012182F820120021C2F82412704710B55D
:100840000446092C69D008DC012C20D0032C0DD0E3
:10085000052C40D0072C19D12AE00B2C4DD00D2CA3
:100860006BD00F2C6DD01E2C77D170E05A480068E9
:100870005949D1F81C1208445749086008460068D5
:100880005C49884202D960485349086065E0524893
:1008900000685149D1F81C12401A4F4908600846B7
:1008A00000685949884202D252484B49086054E0D6
:1008B0004948D0F81C0200EB800040004649C1F8CE
:1008C0001C020846D0F81C02B0F57A7F02D901203C
:1008D000C1F81C0241E04048D0F81C020A21B0FBDC
:1008E000F1F03D49C1F81C020846D0F81C0218B9C5
:1008F0004FF47A70C1F81C022FE0374890F82002BC
:10090000401C354981F82002084690F8200203284F
:1009100002DD012081F820021FE02F4890F820021C
:10092000401E2D4981F82002084690F82002012837
:1009300002DA032081F820020FE00120FFF73BFFDD
:100940000BE0FFF757FF0120FFF735FF05E04FF4FD
:1009500000713C4802F0B5FB00BF00BF10BD10B5F0
:1009600001F0C2FB0446FF2C11DA1B48C0F8184204
:1009700035480088A0420AD02046FFF760FFFFF705
:1009800026FDFFF7DDFCFFF75EFC2F48048010BD5D
:100990000EB500200090019002902C48052182683D
:1009A000082004F09BFB2948142182680D2004F0E4
:1009B00095FB2648072102690A2004F0ACFB234876
:1009C000052142690C2004F089FB20480921C268F6
:1009D000032004F0ECFB0EBDD8010020801A0600B5
:1009E00060AE0A0020240700C48C0008920000209A
:1009F000F890000820A10700D18D0008059200089A
:100A0000DE8E0008EB8F0008E09304001F940008BE
:100A100050280500399600084697000828880400E9
:100A200012930008F80C05002C9500085398000854
:100A3000609900086D9A0008400D030090051000B1
:100A4000689B0600000C01404200002000040020CA
:100A500038B5022404F02CF9C82004F098FCFF20DB
:100A600000900021684604F037F94FF47A6004F0F2
:100A70008EFC04F027F9C82004F089FC38BD012061
:100A8000AF4908604860AF4888604FF41670C8608E
:100A900040F239200861AC48486101208861704704
:100AA00000BF01F090FF482000F0F2FF01F045F98F
:100AB0004FF40071A54802F002FB01F0DAF900F0F2
:100AC0005AFCFFF7DCFFFFF7C3FF04F09FFBFFF7C3
:100AD0005FFF1CE0FFF743FF0A2001F017F89C4876
:100AE000007810B92C209A4908709A48007820B1F3
:100AF000FFF75DFB0020974908709748007830B1F8
:100B000095480078FFF736FB002093490870E1E72D
:100B100070B5002501F05CFE904991F81422143163
:100B200041F822008D4890F81412143050F821003A
:100B30008A490861002405E08848143050F82400F0
:100B40000544641C802CF7DB2846E91705EB51614E
:100B5000C911824A916000240AE08048143050F89C
:100B60002400A84203DD7D48143050F82450641C52
:100B7000802CF2DB7948C56090F82002012804D06F
:100B8000022807D003280FD109E07448006973498F
:100B9000486009E0714880687049486004E06F4827
:100BA000C0686E49486000BF00BF6C4890F81402EE
:100BB000401C6A4981F81402084690F81402802803
:100BC00002DB002081F8140270BD10B56448007883
:100BD00040B163480078FF2804D061480078401E87
:100BE0005F4908705A48007840B159480078FF289A
:100BF00004D057480078401E55490870012000F085
:100C000085FF10BD70B586B056A207CA03AB07C3F7
:100C100052484068002808DB504840684FF47A7119
:100C200090FBF1F201FB120508E04C48406840429D
:100C30004FF47A7190FBF1F201FB120501A92846ED
:100C4000FFF7A9FB002409E001A8005D302800D0CF
:100C500006E0202001A90855601CC4B2032CF3DB78
:100C600000BF3E484068002804DB2021201D03AA65
:100C7000115403E02D21201D03AA1154032C02D18D
:100C800030208DF81300C4F1030201AB1919631D64
:100C900003AE981904F08CFB03AA2021002000F079
:100CA0002EFA06B070BD70B586B0AFF2FC6207CA0E
:100CB00003AB07C32948D0F818024FF47A71B0FB90
:100CC000F1F0B0FBF1F201FB12052448D0F8180254
:100CD000B0FBF1F201FB120601A92846FFF75BFB0E
:100CE000002409E001A8005D302800D006E02020A3
:100CF00001A90855601CC4B2032CF3DB00BF032C10
:100D000002D120208DF81000BDF80400ADF80D00D0
:100D10009DF806008DF80F0001A93046FFF73BFB58
:100D2000BDF80400ADF811009DF806008DF8130021
:100D300003AA2021062000F0E2F906B070BD0000F1
:100D4000000400200276090095133401000C0140D4
:100D500000000020800000207F000020D80100203B
:100D6000900000203A2020202020202000000000B9
:100D7000704700BFFEE700BFFEE700BFFEE700BF11
:100D8000FEE77047704770477047704710B5022103
:100D9000480703F0B4FD20B10221480703F0C0FD6D
:100DA0006AE00121880703F0AAFD002864D0012130
:100DB000880703F0B5FD31480088401C2F490880A2
:100DC00008460088B0F57A7F04D14FF400612C48C2
:100DD00002F077F929480088B0F5FA6F07D10020B2
:100DE000264908804FF40061254802F068F925483B
:100DF000007840B123480078FF2804D021480078CB
:100E0000401E204908702048007840B11E480078F4
:100E1000FF2804D01C480078401E1B4908701B485E
:100E2000008820B319480088A0F58071FF3923D0CD
:100E300016480088B0F5FF7F1ED04FF4807114482B
:100E400002F023F9012805D010480088401E0F4900
:100E5000088011E00D480088B0F5947F08DA0B484F
:100E60000088C82804DD4FF4FF700849088003E0BB
:100E700040F2FF100549088010BD0000500000201E
:100E800000080140900000200000002088000020A1
:100E9000000C014010B50446002000F0A3FE4FF402
:100EA0000061E14802F00DF90121DF4802F007F985
:100EB000204600F0C1FF4FF40061DB4802F0FFF86C
:100EC00010BD10B50446002000F08CFE4FF4006108
:100ED000D54802F0F6F80121D34802F0F2F8204696
:100EE00000F0AAFF4FF40061CF4802F0E8F810BD0F
:100EF00070B505460C4605F00701B031C8B2FFF7E2
:100F0000E0FF102101EB1410FFF7DBFF04F00F00EE
:100F1000FFF7D7FF70BD2DE9F04106460F46144696
:100F200039463046FFF7E4FF002505E014F8010BD1
:100F3000FFF7B0FF681CC5B2102DF7DB711CC8B2FB
:100F40003946FFF7D5FF002505E014F8010BFFF740
:100F5000A1FF681CC5B2102DF7DBBDE8F0812DE9BB
:100F6000F04106460F46144639463046FFF7C0FFAB
:100F7000002505E014F8010BFFF78CFF681CC5B2D3
:100F8000082DF7DB711CC8B23946FFF7B1FF002509
:100F900005E014F8010BFFF77DFF681CC5B2082DB2
:100FA000F7DBBDE8F08110B5A04A00210846FFF745
:100FB000B2FF9E4A203210210020FFF7ACFF9B4A6F
:100FC000403A00210220FFF7A6FF984A203A10215C
:100FD0000220FFF7A0FF954A403200210420FFF7CE
:100FE0009AFF924A603210210420FFF794FF8F4A43
:100FF000803200210620FFF78EFF8C4AA03210219C
:101000000620FFF788FF8A4A30210620FFF783FF7A
:10101000874A203240210620FFF77DFF844A403274
:1010200050210620FFF777FF814A603260210620B9
:10103000FFF771FF7F4A60210020FFF790FF7D4A94
:10104000303A68210020FFF78AFF7A4A2032702167
:101050000020FFF784FF774A103A60210220FFF753
:101060007EFF744A203A68210220FFF778FF714A18
:10107000303270210220FFF772FF6E4A1032602179
:101080000420FFF76CFF6B4A203A68210420FFF729
:1010900066FF684A303270210420FFF760FF10BD00
:1010A0002DE9F041074688461546202D01DABDE8B6
:1010B000F081A5F12000060141463846FFF718FFF0
:1010C000002407E03146761C5B4A505CFFF7E2FEE5
:1010D000601CC4B2082CF5DB791CC8B24146FFF78E
:1010E00007FF002407E03146761C534A505CFFF7A7
:1010F000D1FE601CC4B2082CF5DB00BFD7E770B589
:1011000006460D46144608E014F8012B29463046E1
:10111000FFF7C6FF05F10800C5B220780028F3D11B
:1011200070BD70B50646002415E004F1B001C8B2E8
:10113000FFF7C7FE0120FFF7C4FE1020FFF7C1FE36
:10114000002504E03046FFF7A5FE681CC5B2802DDF
:10115000F8DB601CC4B2082CE7DB70BD10B50421BD
:10116000314801F0AEFF4FF47A7000F0CFFC04215B
:101170002D4801F0A4FFAE20FFF7A3FE0020FFF7EB
:10118000A0FE1020FFF79DFE4020FFF79AFE812071
:10119000FFF797FECF20FFF794FEA120FFF791FE07
:1011A000C820FFF78EFEA620FFF78BFEA820FFF7D2
:1011B00088FE3F20FFF785FED320FFF782FE002048
:1011C000FFF77FFED520FFF77CFE8020FFF779FE3A
:1011D000D920FFF776FEF120FFF773FEDA20FFF744
:1011E00070FE1220FFF76DFEDB20FFF76AFE402045
:1011F000FFF767FE2020FFF764FE0220FFF761FE85
:101200008D20FFF75EFE1420FFF75BFEA420FFF7A2
:1012100058FEA620FFF755FEAF20FFF752FE002034
:10122000FFF77FFF10BD0000000C01402AA200085C
:101230006AA30008AAA100087A9B000800B587B03D
:101240004FF4165003900020ADF81000ADF81200D6
:10125000ADF81400ADF818000C20ADF81600002011
:10126000ADF80400ADF806004FF40070ADF80800CA
:101270000020ADF80A0001A9FA4802F043F803A9DA
:10128000F84801F0E8FF25208DF8000000208DF8D7
:1012900001008DF8020001208DF80300684601F07E
:1012A000C2FB012240F22551EE4802F04EF8012126
:1012B000EC4802F03EF807B000BD08B54FF40070EE
:1012C000ADF8000018208DF8030003208DF802000F
:1012D0006946E54801F048FE4FF48060ADF8000033
:1012E00004208DF803006946DF4801F03DFE08BD8B
:1012F00010B500214FF0006001F0C8FB10BD10B523
:1013000001F0FAFB4FF4803001F015FC01F052FCC3
:10131000D649087008460078012826D1002001F03F
:101320008EFC002001F09DFC4FF4806001F090FCE9
:10133000022002F0FFF8102002F010F94FF4E01143
:101340004FF4803001F05EFC012001F067FC00BF2B
:10135000392001F013FC0028FAD0022001F061FCD2
:1013600000BF01F067FC0828FBD1012144F2040012
:1013700001F02AFD10BD10B5FFF7C1FFFFF7B8FF60
:10138000FFF79BFFFFF75AFF10BD30B50346002261
:101390000CE013F8014BB34D2D1D2C8000BFB14C58
:1013A000248814F0400FFAD0541CA2B28A42F0DB19
:1013B00030BD2DE9F04188B0002407E0AC48005D65
:1013C000222801D1274605E0601CC4B2A948006864
:1013D0008442F3D300BF781CC4B207E0A448005D88
:1013E000222801D1A04605E0601CC4B2A1480068D3
:1013F0008442F3D300BFA8EB0700401EC5B29C4A4D
:10140000781C11182A46684603F0D2FF002D06DD2D
:10141000012D04DC9DF80000A0F1300611E09DF8DC
:101420000000A0F13006012409E01DF8040006EBDD
:10143000860100EB4100A0F13006601CC4B2AC4252
:10144000F3DB304608B0BDE8F08110B5FFF7B1FF1F
:1014500004468948844203D9FF208849087010BD9A
:1014600087488461102087490870012083490870EB
:1014700000BFF4E730B503460C46322A01DDFF20F9
:1014800030BD002106E0585C655CA84200D003E056
:10149000481CC1B29142F6DB00BF914201D101204C
:1014A000EEE7FF20ECE710B5FFF783FF0446764830
:1014B000844203D9FF207149087010BD704844610F
:1014C0000F207049087001206C49087000BFF4E7D4
:1014D00010B5FFF76EFF04466748844203D9FF202A
:1014E0006649087010BD664804610E2065490870A1
:1014F00001206249087000BFF4E710B5FFF759FFFB
:1015000004465D48844203D9FF205C49087010BD41
:101510005B48C4600D205B49087001205749087082
:1015200000BFF4E710B5FFF744FF04465248844279
:1015300003D9FF205149087010BD514884600C2028
:101540005049087001204D49087000BFF4E710B5FC
:10155000FFF72FFF04464848844203D9FF2047493C
:10156000087010BD464844600B20464908700120B1
:101570004249087000BFF4E710B5FFF71AFF0446B0
:101580003D48844203D9FF203C49087010BD3C48C7
:1015900004600A203B49087001203849087000BFE8
:1015A000F4E710B5092239A13148FFF763FF01289C
:1015B00002D1FFF7E1FF3AE0082237A12C48FFF7FC
:1015C00059FF012802D1FFF7C2FF30E0082235A100
:1015D0002748FFF74FFF012802D1FFF7A3FF26E0BE
:1015E000062233A12248FFF745FF012802D1FFF769
:1015F00084FF1CE0092230A11D48FFF73BFF0128B2
:1016000002D1FFF765FF12E009222EA11848FFF76B
:1016100031FF012802D1FFF746FF08E00B222CA181
:101620001348FFF727FF012801D1FFF70EFF10BD78
:1016300010B50246302A04DB392A02DC1007030EFB
:1016400008E0412A05DB462A03DCD01F0007030E11
:1016500000E00023302941DB39293FDCA1F13000D3
:10166000C4B244E00038014000080140810000207D
:10167000500600207800002040420F007F0000202C
:101680000004002080000020FF4C400150726F6475
:101690004E616D653D00000050726F644164643DB1
:1016A000000000004974656D4E756D3D000000003E
:1016B00050726963653D00004D656D5072696365E8
:1016C0003D00000050726F64446174653D0000008D
:1016D000436861766765556E69743D00412905DB95
:1016E000462903DCA1F13700C4B200E00024181938
:1016F000C0B210BD2DE9F041044600260027D748AE
:101700000078142871D013DC04286FD007DC20B3D4
:10171000012846D002284ED0032841D155E00528A3
:101720001CD0112876D0122875D01328F5D1A1E04D
:10173000322871D008DC21286FD022286ED02328CF
:101740006DD03128E9D1CCE0332869D0342868D075
:10175000352804D04128E0D114E100BF00BF242C7B
:1017600003D10120BD4908701AE0212C03D11120BA
:10177000BA49087014E02A2C03D12120B749087017
:101780000EE0262C03D13120B449087008E03C2C2F
:1017900003D14120B149087002E00020AF49087030
:1017A0000DE13D2C03D10220AC49087002E000207D
:1017B000AA49087003E1222C03D10320A74908702D
:1017C00002E00020A5490870F9E0302C01DB392C3B
:1017D00003DD412C26DB462C24DCA148007810F0E8
:1017E000010F04D19F4804700EE04DE024E09E48B4
:1017F000047001789B480078FFF71AFF9B49984ACC
:10180000126801EB5201087095480068401C944929
:10181000086010E01AE023E06DE044E04DE056E09F
:1018200073E0A5E0222C03D104208C49087002E06B
:1018300000208A490870C2E0232C03D10520874983
:10184000087002E0002085490870B8E0212C03D11F
:1018500012208249087002E0002080490870AEE042
:10186000212C03D113207D49087002E000207B4920
:101870000870A4E0212C03D114207849087002E0FC
:101880000020764908709AE02A2C03D12120734960
:10189000087002E01420714908703C2C02D14120EC
:1018A0006E4908708BE02A2C03D122206B49087006
:1018B00002E014206949087081E02A2C03D123201A
:1018C0006649087002E014206449087077E02A2C09
:1018D00003D124206149087002E014205F49087098
:1018E0006DE03D2C03D132205C49087002E00020FD
:1018F0005A49087063E0222C03D1332057490870FD
:1019000002E000205549087059E0302C01DB392CE9
:1019100003DD412C22DB462C20DC5548007810F0FA
:10192000010F02D1534804700CE053480470017851
:1019300050480078FFF77CFE50494D4A126801EB91
:10194000520108704A480068401C4949086008462E
:101950000068A0280BD30020086008E0222C03D1E7
:1019600034203E49087002E000203C49087026E01F
:10197000232C03D135203949087002E00020374973
:1019800008701CE03E2C08D1002034490870FFF795
:1019900008FE00203A49086010E03A4838490968D2
:1019A000445437480068401C3549086008460068C0
:1019B000322803D3002008602849087000BF00BF08
:1019C00026480078212817D024480078222813D0F0
:1019D0002248007823280FD02048007824280BD0F4
:1019E0001E48007840B11D480078052804D02A2CF4
:1019F00002D10020194908701848007824281AD10B
:101A0000002504E0002019494855681C85B2B5F549
:101A1000487FF7DB002012490860002504E0002021
:101A200016494855681C85B2A02DF8DB00201049E6
:101A300008600A490870BDE8F08170B50025124CB5
:101A4000208800F02000202806D1A0880F490870C7
:101A500008460078FFF74EFE70BD00007E000020B3
:101A6000680000206C0000206D0000202004002091
:101A7000700000207400002075000020B0050020D8
:101A8000780000205006002000380140650000204A
:101A90004FF0E021096921F004014FF0E0221161CB
:101AA000C21700EB5272C2F3C7022B4B1A701946D1
:101AB000097801EB4102C2EBC1114FF6FF7202EA55
:101AC000C101264A1180704700EB8002510000BF1F
:101AD0000A00A1F10101FBD11F4A127842434FF0E5
:101AE000E0235A6100229A6101221A6100BF4FF07F
:101AF000E022116911F0010F02D011F4803FF6D0FD
:101B000000224FF0E0231A619A6170470146134AA0
:101B100012884A434FF0E0235A6100229A61012261
:101B20001A6100BF4FF0E022106910F0010F02D0DF
:101B300010F4803FF6D000224FF0E0231A619A6142
:101B400070474FF47A7200FB02F100BF0A00A1F166
:101B50000101FBD1704700008200002084000020BA
:101B600000B587B0274801F07BFF0121082001F074
:101B70002BF90121880301F034F94FF46040ADF8EE
:101B8000040018208DF8070003208DF8060001A935
:101B90001D4801F0E9F90020ADF808004FF482700B
:101BA000ADF80A000020ADF80C000220ADF80E00E0
:101BB0000020ADF810004FF40070ADF8120038208E
:101BC000ADF814000020ADF816000720ADF818009D
:101BD00002A90C4801F070FF01210A4802F009F83F
:101BE00007B000BD38B9074909884FF6FD721140AA
:101BF000044A118005E00349098841F00201014AC5
:101C00001180704700380040000C014008B50121E8
:101C1000042001F0D9F80121082001F0D5F80121B4
:101C2000102001F0D1F80F20ADF8000003208DF84E
:101C3000020010208DF8030069467D4801F094F9F8
:101C4000E020ADF8000003208DF8020048208DF858
:101C500003006946774801F087F94FF40061754841
:101C600001F02DFA40F60700ADF8000003208DF8D2
:101C7000020010208DF8030069466E4801F074F9E7
:101C80004FF48070ADF8000003208DF802001020A2
:101C90008DF803006946664801F066F94FF48060EC
:101CA000ADF8000003208DF8020048208DF80300F5
:101CB0006946604801F058F94FF48050ADF80000D3
:101CC00003208DF8020010208DF803006946594862
:101CD00001F04AF94FF40060ADF8000003208DF8E0
:101CE000020010208DF803006946514801F03CF9CC
:101CF0004FF40070ADF8000003208DF802001020B2
:101D00008DF8030069464B4801F02EF94FF48070BE
:101D1000ADF8000003208DF8020048208DF8030084
:101D20006946444801F020F90121042001F04CF8F3
:101D30000121082001F048F808BD08B50121042060
:101D400001F042F80121082001F03EF801211020A5
:101D500001F03AF80F20ADF8000003208DF80200E2
:101D600010208DF803006946314801F0FDF8E020AD
:101D7000ADF8000003208DF8020048208DF8030024
:101D800069462C4801F0F0F84FF40061294801F051
:101D900096F940F60700ADF8000003208DF8020028
:101DA00010208DF803006946224801F0DDF84FF459
:101DB0000060ADF8000003208DF8020004208DF8CB
:101DC000030069461A4801F0CFF84FF42040ADF8FF
:101DD000000003208DF8020010208DF803006946F2
:101DE000144801F0C1F84FF40070ADF80000032072
:101DF0008DF8020010208DF8030069460D4801F0AF
:101E0000B3F84FF48070ADF8000003208DF80200A5
:101E100048208DF803006946064801F0A5F8012125
:101E2000042000F0D1FF0121082000F0CDFF08BD03
:101E300000080140000C014010B5044600BF02211B
:101E4000294801F05AFF0028F9D02146264801F020
:101E500001FF00BF0121244801F04FFF0028F9D005
:101E6000214801F0F9FEC0B210BD10B5FFF778FEB1
:101E700010BD1FB50121084600F0A6FF00214FF05C
:101E8000006000F003FE1C208DF80C0000208DF88F
:101E90000D0001208DF80E008DF80F0003A800F052
:101EA000C2FD0121084600F09CFF4FF48040ADF8D0
:101EB00004000020ADF80000ADF80600ADF8020007
:101EC00069464FF0804001F0B6FF012200219007E3
:101ED00002F0DFFA01221146900702F04DFA0121CB
:101EE000880702F02EFA1FBD0038004070472DE928
:101EF000F0414FF000080F21C24801F0E2F84FF422
:101F00009670FFF7E1FD2021BF4801F0BEF80128DF
:101F10000ED14021BC4801F0B8F8012808D1802139
:101F2000B94801F0B2F8012802D1FF20BDE8F081E4
:101F30000024002536E00120A840C0431FFA80F8A5
:101F4000B0480C30006840F00F00AE490C3108601A
:101F50000846006800EA080008604FF49670FFF732
:101F6000B3FDA9480830006886B27611F04386B206
:101F700006F00706002711E00120B84030420BD0E0
:101F80004FF6FF7000EA0414781C04434FF6FF700C
:101F900000EA0414681C0443781CC7B2042FEBDB6E
:101FA000681CC5B2042DC6DB2046BFE710B50F2163
:101FB000944801F086F84FF49670FFF785FD2021D4
:101FC000914801F062F848B140218F4801F05DF876
:101FD00020B180218C4801F058F808B9012010BDCB
:101FE0000020FCE770B589480078062879D2DFE840
:101FF00000F0037810274563FFF7D8FF38B10320BE
:1020000083490870022081490870FF2070BDFF20BD
:10201000FCE77F48007808B1FF20F7E7FFF767FF8C
:102020000446FF2C04D1002078490870FF20EDE71A
:102030007848048025460320744908702846E5E75F
:10204000FFF755FF0446FF2C08D105206F490870A3
:10205000FF2503206E490870FF20D7E76D480088F0
:10206000844201D1FF20D1E76A48048004206749F7
:1020700008700320664908703020C7E7644800787C
:1020800008B1FF20C2E7FFF732FF0446FF2C04D15E
:1020900005205E490870FF20B8E75E480088A0422E
:1020A00005D125460320594908702846AEE700208F
:1020B00056490870FF20A9E75548007808B1FF206D
:1020C000A4E7FFF714FF0446FF2C05D100204F4979
:1020D000087020209AE704E003204C490870FF2094
:1020E00094E700BF00BF91E72DE9F0410024A0462E
:1020F0000027FFF777FF064600251DE0042000EBD0
:10210000C50046FA00F000F00F08E80046FA00F0BB
:1021100000F00F074FB10F2F07D008EB8700001F0B
:10212000E9008840204384B204E0E90000208840B0
:10213000204384B2681CC5B2022DDFDB4FF48071EE
:10214000314800F0A2FF34490978884210D04FF49A
:1021500080712D4800F099FF18B94FF496702F49FF
:1021600008804FF48071284800F08FFF2A490870DA
:102170002A48008830B940F2FF10284908801E2004
:10218000BDE8F08125480088B0F5FF7F05D140F219
:10219000FF10224908806420F2E7202E04D0302E60
:1021A00009D0FF2E11D10BE000201D49087020241A
:1021B0001C49088023E0012019490870FF20DFE74F
:1021C000002017490870FF20DAE71548007898B119
:1021D000002013490870201202D1124804800DE03B
:1021E000E0B210490988884208D10E480078000200
:1021F00040EA242084B201E00A48048000BF00BF06
:102200002046BDE700080140000C01408600002088
:10221000900000208E0000208D000020880000200B
:102220008C0000208A00002010B50120FFF7DAFCA6
:1022300000BF4FF48051FE4800F043FF4420FFF7F9
:10224000FBFDFF20FFF7F8FD04464FF48051F848EE
:1022500000F035FFFF2CECD110BD70B504460D46E3
:102260000120FFF7BFFCFFF7DFFF4FF48051F0487C
:1022700000F027FF03E014F8010BFFF7DDFD280055
:10228000A5F10101CDB2F6D14FF48051E84800F03C
:1022900016FF70BD1CB5044602208DF80000012019
:1022A0008DF8010000208DF80200200E8DF803004B
:1022B000200C8DF80400200A8DF80500E0B28DF89E
:1022C000060007216846FFF7C8FF1CBD70B504462D
:1022D0000D460120FFF786FCFFF7A6FF4FF4805163
:1022E000D34800F0EEFE4420FFF7A6FD04E0FF20F7
:1022F000FFF7A2FD04F8010B2800A5F10101CDB202
:10230000F5D14FF48051CA4800F0D9FE70BD10B528
:102310000120FFF767FC4FF48051C54800F0D1FE63
:102320000020FFF789FD04464FF48051C04800F0BB
:10233000C6FE204610BD38B504460120009001219C
:102340006846FFF78AFF08212046FFF7BFFF38BD28
:1023500038B504461020009001216846FFF77DFF44
:1023600007212046FFF7B2FF38BD38B504462020CC
:102370008DF8000000208DF801008DF802008DF826
:10238000030004216846FFF768FF09212046FFF794
:102390009DFF38BDF8B504460D46164612208DF84F
:1023A000000020128DF801008DF80250E0B28DF887
:1023B000030004216846FFF750FF681CC1B2304695
:1023C000FFF784FFF8BDF0B585B006460D46174609
:1023D0000024102D01DB05B0F0BD11222146601C48
:1023E000C4B20DF8012032122046611CCCB20DF8A7
:1023F00000202046611CCCB20DF80050F2B22046FD
:10240000611CCCB20DF8002006E017F8012B204625
:10241000611CCCB20DF800202800A5F10101CDB25D
:10242000F3D121466846FFF718FF00BFD3E77CB51C
:1024300004460D4611208DF8000020128DF8010091
:1024400001208DF80200E0B28DF803008DF80450F1
:1024500005216846FFF701FF7CBD38B50446122010
:102460008DF8000020128DF8010001208DF8020087
:10247000E0B28DF8030004216846FFF7EEFE02216A
:102480006846FFF723FF9DF8010038BD10B546F2FE
:102490009C344FF48071674800F011FE00BF2000AB
:1024A000A4F10104FBD14FF48071624800F009FEF1
:1024B0004FF480515E4800F002FE10BD2DE9FE4F42
:1024C00004460D4616461F46DDE90D9ADDF83080BC
:1024D00013208DF800008DF801408DF802508DF822
:1024E00003608DF804708DF805808DF806908DF8E6
:1024F00007A008216846FFF7B0FE08216846FFF7ED
:10250000E5FEBDE8FE8F3EB5002406E0641C4A49A6
:1025100008192946FFF7A1FE2C444748055D002D08
:10252000F4D1002141F20620FFF781FF00214FF492
:102530009050FFF77CFF012141F20920FFF777FF60
:102540002A2141F20820FFF772FF002141F20A2000
:10255000FFF76DFF002141F20D20FFF768FF012119
:1025600041F20E20FFF763FF002141F20F20FFF739
:102570005EFF002141F21020FFF759FF002141F2D8
:102580001120FFF754FF102141F21220FFF74FFFF7
:10259000002141F21320FFF74AFF002141F21420ED
:1025A000FFF745FF00200090019060236122014663
:1025B0000290FFF783FF3EBD70B504460D46012033
:1025C000FFF710FB4FF48051194800F07AFD6620A8
:1025D000FFF732FC03E014F8010BFFF72DFC280095
:1025E000A5F10101CDB2F6D14FF48051104800F0B1
:1025F00066FD70BD08B515208DF8000001208DF82E
:10260000010002216846FFF728FE08BD2DE9FC41C4
:1026100005460C4616461F46A0460120FFF7E2FA83
:10262000FFF7E8FF4FF48051014800F04AFD05E054
:10263000000C014000080140920000206620FFF7D6
:10264000FBFB08F1010000F0FF082046FFF7F4FB58
:1026500003E015F8010BFFF7EFFB2000A4F10101E7
:10266000CCB2F6D14FF480519B4800F028FD3120C8
:102670008DF800008DF801608DF8027000208DF853
:1026800003008DF8048005216846FFF7E6FDBDE8EC
:10269000FC817CB506460D46144631208DF80000BD
:1026A0008DF801608DF80250200A8DF80300E0B229
:1026B0008DF8040005216846FFF7CFFD7CBD70B59D
:1026C00004460120FFF78EFAFFF7AEFD4FF480516C
:1026D000814800F0F6FC7720FFF7AEFBFF20FFF704
:1026E000ABFB05462E4604E0FF20FFF7A5FB04F8F0
:1026F000010B2800A5F10101CDB2F5D14FF48051B5
:10270000754800F0DCFC304670BD08B515208DF82A
:10271000000002208DF8010002216846FFF79DFDB0
:1027200008BD2DE9FC4705460F4614461E46DDE967
:102730000A89FFF7EAFFFFF75DFF32208DF80000FE
:102740008DF801508DF80270200A8DF80300E0B278
:102750008DF804008DF805608DF806808DF80790DF
:1027600008216846FFF779FDBDE8FC872DE9FC41AB
:1027700007460E4614461D4616208DF800008DF8BB
:102780000160200A8DF80200E0B28DF80300280AEB
:102790008DF80400E8B28DF8050006216846FFF7C1
:1027A0005CFD03213846FFF791FDBDE8FC8138B59B
:1027B000044615208DF8000003208DF80100022149
:1027C0006846FFF74AFD03212046FFF77FFD38BD2D
:1027D00030B585B00820009000231A4619460190B4
:1027E0001846FFF79EFF0220FFF790F922208DF890
:1027F0000800FF208DF80900022102A8FFF72DFD37
:102800000220FFF783F9082102A8FFF75FFD9DF87A
:102810000800324908709DF8090048709DF80A00C8
:1028200088709DF80B00C8709DF80C0008719DF829
:102830000D0048719DF80E004FF47F4101EA002021
:102840002649C8800846C0889DF80F1008432349D0
:10285000C8800846C478204604EBD0714910A1F125
:102860008605284605B030BD0EB501208DF8000064
:1028700001216846FFF7F1FC08216846FFF726FDB5
:102880009DF80000164908809DF801004FF47F4133
:1028900001EA002012494880084680889DF802100D
:1028A00008430F4988809DF80300C8809DF8040004
:1028B0004FF47F4101EA0020094908810846408918
:1028C0009DF805100843064948819DF80600888157
:1028D0009DF80700C8810EBD000C0140A00100203A
:1028E000820600200CB50020019000904748006847
:1028F00040F480304549086000BF4448006800F457
:10290000003000900198401C0190009818B901987F
:10291000B0F5A06FF1D13D48006810F4003F02D03F
:102920000120009001E0002000900098012843D190
:102930003748006840F010003549086008460068D4
:1029400020F0030008600846006840F002000860BC
:102950002E4840682D49486008464068486008464F
:10296000406840F4806048600846406820F47C106D
:1029700048600846406840F4E8104860084600682F
:1029800040F08070086000BF2048006810F0007FB1
:10299000FAD01E48406820F003001C4948600846F1
:1029A000406840F00200486000BF1848406800F0EE
:1029B0000C000828F9D101E000BFFEE70CBD10B5FE
:1029C000FFF790FF10BD10B51048006840F00100FF
:1029D0000E490860084640680E4908400B494860A7
:1029E000084600680C490840084908600846006825
:1029F00020F4802008600846406820F4FE0048600B
:102A000000208860FFF7DBFF10BD000000100240CF
:102A1000002002400000FFF8FFFFF6FE31490143AD
:102A2000314A1160704770B5002100230F22C4782D
:102A30000CB32D4C246804F4E064C4F5E064210A6E
:102A4000C1F10403CA40447804FA03F184781440C5
:102A500021430901254C0678A155047804F01F058F
:102A60000124AC4005786D114FF0E02606EB85059A
:102A7000C5F8004109E0047804F01F050124AC40CA
:102A80001B4D0678761145F8264070BD194A0A405C
:102A90000243154B1B1F1A60704739B1124A121DB1
:102AA00012680243104B1B1D1A6006E00E4A121DED
:102AB000126882430C4B1B1D1A607047042808D112
:102AC0004FF0E021096941F004014FF0E02211616B
:102AD00007E04FF0E021096921F004014FF0E02206
:102AE000116170470000FA050CED00E000E400E021
:102AF00080E100E080FFFF1FDC48006840F001003B
:102B0000DA49086008464068D9490840D749486012
:102B100008460068D7490840D4490860084600685C
:102B200020F4802008600846406820F4FE004860D9
:102B3000002088607047CD49096821F48031CB4A74
:102B400011601146096821F480211160B0F5803FC1
:102B500003D0B0F5802F0ED106E0C449096841F4D6
:102B60008031C24A116007E0C049096841F4A021E0
:102B7000BE4A116000E000BF00BF704710B50146BB
:102B80000022002300204A11012A02D1B74C2368F9
:102B900006E0022A02D1B54C236A01E0B34C636A15
:102BA00001F01F02012494401C4201D0012000E0EA
:102BB000002010BD38B5002000900024002500BF83
:102BC0003120FFF7DBFF05460098401C00901DB93F
:102BD0000098B0F5A06FF3D13120FFF7CFFF08B117
:102BE000012400E00024204638BD014600209F4A11
:102BF000106820F0F80040EAC100106070479E495C
:102C00000860704702460020984B586820F47C10FA
:102C100042EA01031843954B58607047964908668D
:102C2000704701460020914A506820F00300084395
:102C3000506070478D48406800F00C0070470146B6
:102C400000208A4A506820F0F00008435060704726
:102C500001460020854A506820F4E0600843506037
:102C6000704701460020814A506820F4605040EAD5
:102C7000C1005060704729B17C4A527A02437B4BB5
:102C80005A7204E0794A527A8243784B5A727047FA
:102C90007A490860704701460020744A506820F461
:102CA00040400843506070470021754A11706F4AD8
:102CB00082F82010012802D0042808D103E0012165
:102CC0006F4A117004E005216D4A117000E000BFE9
:102CD00000BF70476B49086070476449096A014347
:102CE000624A11627047674944390860704730B5DD
:102CF00000210022002400235C4D6D6805F00C01CA
:102D000021B1042905D0082923D105E05E4D0560D5
:102D100022E05D4D05601FE0544D6D6805F47012B2
:102D2000022505EB9242514D6D6805F480341CB9C3
:102D3000564D554305600BE04C4D6D6815F4003F52
:102D400003D0524D5543056002E04F4D5543056099
:102D500002E04D4D056000BF00BF444D6D6805F0B9
:102D6000F00109094A4D6B5C0568DD4045603F4D47
:102D70006D6805F4E061090A454D6B5C4568DD400E
:102D800085603A4D6D6805F46051C90A404D6B5C31
:102D90004568DD40C560354D6D6805F44041890BDF
:102DA0003C4D6B5CC568B5FBF3F5056130BD29B1E1
:102DB0002E4A526902432D4B5A6104E02B4A526954
:102DC00082432A4B5A61704729B1284A92690243CB
:102DD000264B9A6104E0254A92698243234B9A610B
:102DE000704729B1214AD2690243204BDA6104E0DD
:102DF0001E4AD26982431D4BDA61704729B11B4AD2
:102E0000D2680243194BDA6004E0184AD268824360
:102E1000164BDA60704729B1144A12690243134B0A
:102E20001A6104E0114A12698243104B1A6170471B
:102E300014494039086070470F49C86470470B490E
:102E4000C87170470948406A40F08070074948627D
:102E5000704701460020054A92680A4201D00120CD
:102E600000E000207047014988727047001002405E
:102E70000000FFF8FFFFF6FE00004242D800424289
:102E8000201002408004424200127A0000093D00F6
:102E9000A8010020B801002010B50446C549601AF9
:102EA0008C422FD009DCC448201810D0B0F5806FB8
:102EB00016D0B0F5006F4AD11BE0B0F5806F2AD074
:102EC000B0F5006F30D0B0F5406F40D135E0012152
:102ED0000420FFF793FF00210420FFF78FFF37E066
:102EE00001210820FFF78AFF00210820FFF786FF55
:102EF0002EE001211020FFF781FF00211020FFF7B5
:102F00007DFF25E001212020FFF778FF0021202010
:102F1000FFF774FF1CE001214020FFF76FFF002145
:102F20004020FFF76BFF13E001218020FFF766FFD1
:102F300000218020FFF762FF0AE001210802FFF76D
:102F40005DFF00214FF48070FFF758FF00E000BFE5
:102F500000BF10BD10B501210846FFF74FFF00214B
:102F60000120FFF74BFF10BD2DE9F041024600257F
:102F70000026002000230024002791F803C00CF055
:102F80000F0591F803C01CF0100F03D091F802C098
:102F90004CEA050591F800C0BCF1000F31D014686F
:102FA00000202BE04FF0010C0CFA00F3B1F800C048
:102FB0000CEA03069E4220D183004FF00F0C0CFA5E
:102FC00003F7BC4305FA03FC4CEA040491F803C080
:102FD000BCF1280F06D14FF0010C0CFA00FCC2F82E
:102FE00014C00AE091F803C0BCF1480F05D14FF0BE
:102FF000010C0CFA00FCC2F810C0401C0828D1D308
:103000001460B1F800C0BCF1FF0F34DD546800203B
:103010002EE000F1080C4FF0010808FA0CF3B1F8AB
:1030200000C00CEA03069E4221D183004FF00F0C32
:103030000CFA03F7BC4305FA03FC4CEA040491F8CC
:1030400003C0BCF1280F05D100F1080C08FA0CF8F8
:10305000C2F8148091F803C0BCF1480F07D100F109
:10306000080C4FF0010808FA0CF8C2F81080401C58
:103070000828CED35460BDE8F0814FF6FF7101807F
:10308000022181700421C1707047024600209368BC
:103090000B4201D0012000E0002070470146886803
:1030A00080B2704702460020D3680B4201D0012055
:1030B00000E0002070470146C86880B27047016197
:1030C0007047416170470AB1016100E0416170479A
:1030D000C16070474FF480320A438261816182612E
:1030E00082698269704702460020344B18684FF6A7
:1030F0008073184040EA02100843304B1860704754
:103100002F49C8617047F0B50A460023002400210A
:1031100000252A4E7168C0F3034583B200F44016BF
:10312000B6F5401F08D121F07061244E766826F074
:103130007066224F7E6012E000F48016B6F5801FA4
:1031400006D1032606FA05F4A14341F0706106E0BA
:10315000460D360103FA06F6B14341F0706122B123
:10316000460D360103FA06F63143144E7160F0BD88
:1031700030B500228B071C0F0F2303FA04F20F4B0C
:1031800008338C1053F8243093430C4C08348D10C2
:1031900044F8253023468C1053F824308C07240F34
:1031A00000FA04F42343054C08348D1044F825300C
:1031B00030BD00000014014000F8FEBF00000140D7
:1031C0000000204210B50446D749601A8C422BD02B
:1031D00006DCD648201813D0B0F5806F38D119E03E
:1031E000B0F5806F2AD0B0F56C4F31D10121880342
:1031F000FFF704FE00214FF48040FFF7FFFD28E0B9
:1032000001214804FFF707FE00214FF40030FFF7CB
:1032100002FE1EE001218804FFF7FDFD00214FF4AE
:103220008020FFF7F8FD14E00121C804FFF7F3FD4B
:1032300000214FF40020FFF7EEFD0AE00121080510
:10324000FFF7E9FD00214FF48010FFF7E4FD00E0F7
:1032500000BF00BF10BD2DE9F04786B005460E4601
:103260000024A24600BF00BF00272F462C8A4CF640
:10327000FF700440F08804432C82AC894EF6F310B2
:103280000440B08831890843718908430443AC8104
:10329000AC8A4FF6FF400440B0890443AC8201A8D9
:1032A000FFF725FDA248874202D1DDF810A001E01A
:1032B000DDF80CA00AEBCA0000EB0A1031688900A7
:1032C000B0FBF1F86420B8FBF0F0040120096421A0
:1032D00001FB1089322000EB0910B0FBF1F000F087
:1032E0000F0004432C8106B0BDE8F0874FF416515F
:1032F000016000218180C18001810C214181002178
:103300008181704710B502460020108A4FF2FF03FA
:1033100018400B884C8823438C882343CC88234354
:103320001843108210BD0021018041808180C1803E
:10333000704721B1828942F40052828104E082897F
:103340004DF6FF731A4082817047F0B503460024A2
:103350000026002500201846C1F3421401F01F0684
:10336000012707FA06F5012C01D10C3004E0022CEC
:1033700001D1103000E014301AB107682F43076004
:1033800002E00768AF430760F0BD1AB1838A0B43C0
:10339000838202E0838A8B4383827047028A4FF6DE
:1033A000F0731A400282028A0A43028270478289BD
:1033B0004FF2FF731A40828182890A4382817047EB
:1033C00021B1828942F00202828104E082894FF6B3
:1033D000FD731A4082817047028A4FF6DF731A40EC
:1033E0000282028A0A430282704721B1028A42F4B1
:1033F0008042028204E0028A4BF6FF731A40028286
:103400007047C1F308028280704701468888C0F384
:1034100008007047818941F0010181817047028B6A
:10342000D2B20283028B42EA012202837047028BEE
:1034300002F47F420283028B0A430283704721B168
:10344000828A42F02002828204E0828A4FF6DF7391
:103450001A408282704721B1828A42F01002828231
:1034600004E0828A4FF6EF731A408282704721B1DE
:10347000828A42F00802828204E0828A4FF6F77361
:103480001A4082827047828A4FF6FB731A4082820A
:10349000828A0A438282704721B1828A42F0020204
:1034A000828204E0828A4FF6FD731A40828270475E
:1034B0000246002013880B4201D0012000E00020CA
:1034C0007047CA430280704770B502460B4600241D
:1034D000002100250020C3F3421503F01F0101263F
:1034E00006FA01F1012D02D19689314006E0022D44
:1034F00002D1168A314001E0968A31401C12012621
:1035000006FA04F41688344011B10CB1012000E031
:10351000002070BD10B5002200230A12012494403F
:10352000A3B2DC43048010BD004C004000BCFFBFD0
:103530000038014001460020FB4A106800F03800C6
:10354000084310607047F849096821F00801F64AFD
:10355000116011460968014311607047F24909681A
:1035600021F01001F04A1160114609680143116011
:103570007047EE48EC494860ED4848607047EA48BB
:10358000006940F08000E849086170470420E6497E
:10359000C96811F0010F01D001200EE0E249C968AD
:1035A00011F0040F01D0022007E0DF49C96811F0D3
:1035B000100F01D0032000E00420704708B5002060
:1035C0000090FF20009002E00098401E00900098BC
:1035D0000028F9D108BD70B504460425FFF7D6FFD1
:1035E000054605E0FFF7EAFFFFF7D0FF0546641E3A
:1035F000012D01D1002CF5D104B90525284670BD57
:1036000070B50546042440F6FF70FFF7E4FF04465A
:10361000042C19D1C448006940F00200C249086175
:1036200008464561006940F04000086140F6FF70BF
:10363000FFF7D1FF0446012C06D0BB48006941F6D4
:10364000FD710840B8490861204670BD10B50424DA
:1036500040F6FF70FFF7BFFF0446042C18D1B248B4
:10366000006940F00400B04908610846006940F074
:103670004000086140F6FF70FFF7ADFF0446012CE3
:1036800006D0A948006941F6FB710840A6490861C7
:10369000204610BD10B5042440F6FF70FFF79BFFD5
:1036A0000446042C3BD1A1489F498860A04888600B
:1036B0000846006940F0200008610846006940F0B3
:1036C0004000086140F6FF70FFF785FF0446042CB8
:1036D0001CD19548006941F6DF71084092490861A4
:1036E0000846006940F010000861A5209149088053
:1036F0000F20FFF770FF0446012C10D08A480069A4
:1037000041F6EF7108408849086108E0012C06D0B5
:103710008548006941F6EF710840834908612046F9
:1037200010BD70B505460E4604240F20FFF753FF69
:103730000446042C25D17C48006940F001007A49F8
:1037400008612E800F20FFF746FF0446042C0FD19E
:10375000300C68800F20FFF73EFF0446012C10D08C
:103760007148006941F6FE7108406F49086108E040
:10377000012C06D06C48006941F6FE7108406A4988
:103780000861204670BD70B505460E4604240F2022
:10379000FFF721FF0446042C13D16348006940F071
:1037A0000100614908612E800F20FFF714FF0446D5
:1037B000012C06D05C48006941F6FE7108405A4968
:1037C0000861204670BD70B505460E4604240F20E2
:1037D000FFF701FF0446042C17D154485249886072
:1037E000534888600846006940F0100008612E8048
:1037F0000F20FFF7F0FE0446012C06D04A4800696E
:1038000041F6EF71084048490861204670BD2DE936
:10381000F04704464FF6FF763746B046B1460425DA
:10382000E443E6B2C4F30727C4F307484FEA146938
:103830000F20FFF7D0FE0546042D40D13B483A4902
:1038400088603B4888600846006940F010000861C5
:10385000FF2E06D03748083006800F20FFF7BBFE4A
:103860000546042D08D1FF2F06D032480A300780C4
:103870000F20FFF7B0FE0546042D0AD1B8F1FF0F67
:1038800007D02C480C30A0F800800F20FFF7A3FED3
:103890000546042D0AD1B9F1FF0F07D025480E3097
:1038A000A0F800900F20FFF796FE0546012D06D0E8
:1038B0001D48006941F6EF7108401B490861284620
:1038C000BDE8F08770B50546042440F6FF70FFF7A9
:1038D00082FE0446042C4AD11448134988601448D7
:1038E00088600846006940F02000086108460069C9
:1038F00040F04000086140F6FF70FFF76CFE0446A0
:10390000042C2BD10848006941F6DF7108400649B4
:1039100008610846006940F01000086165B10020A8
:10392000044908800BE000000020024023016745A5
:10393000AB89EFCD00F8FF1FA5204549088040F670
:10394000FF70FFF748FE0446012C10D04148006983
:1039500041F6EF7108403F49086108E0012C06D0AC
:103960003C48006941F6DF7108403A490861204649
:1039700070BD2DE9F04107460D4616460424364831
:1039800034498860354888600F20FFF724FE0446DC
:10399000042C1AD12F48006940F010002D4908610D
:1039A00047EA0500304340F0F8002949891C0880A7
:1039B0000F20FFF710FE0446012C06D025480069B1
:1039C00041F6EF710840234908612046BDE8F081C7
:1039D0002048C069800870471E48006A7047002070
:1039E0001C49C96911F0020F01D0012000E000203C
:1039F000704700201749096811F0200F01D00120FD
:103A000000E00020704729B1124A12690243114BAD
:103A10001A6104E00F4A126982430E4B1A61704723
:103A200001460020012908D10A4AD26912F0010F8B
:103A300001D0012008E0002006E0064AD2680A42D0
:103A400001D0012000E0002070470249C8607047A3
:103A500000F8FF1F0020024023016745AB89EFCD2E
:103A600010B50446BD4820180FD0B0F5806F16D0B1
:103A7000B0F5784F1DD101210803FFF7BFF90021F0
:103A80004FF48050FFF7BAF914E001218803FFF7E3
:103A9000C2F900214FF48040FFF7BDF90AE001218F
:103AA000C803FFF7B8F900214FF40040FFF7B3F95E
:103AB00000E000BF00BF10BD10B50022028802F474
:103AC00041520B884C8823438C882343CC88234362
:103AD0000C8923434C8923438C892343CC8923437A
:103AE0001A430280838B4FF2FF74234083830B8A37
:103AF000038210BD2DE9F04786B005460C464FF015
:103B0000000902274FF000084FF0010A0026A88B99
:103B10004FF240010840A88302202884B5F81C9089
:103B20002089022801D100BF31E0A08810B94FF0F0
:103B3000010A01E04FF0020A01A8FFF7D8F8E08877
:103B4000B0F5007F0AD1019800EB80004000218988
:103B50000902B0FBF1F0401D86B20BE04FEA4A10BB
:103B600021894843019901EB81014900B1FBF0F043
:103B7000401D86B20A20B6FBF0F606F00108A6EB5F
:103B80000800C0F34F074FF6FF7000EA0828022F25
:103B900001DBFF2F02DD02274FF0000847EA080093
:103BA000E18808432884208840F400606188084345
:103BB000A18808436189084340EA0909A5F81C90D7
:103BC00006B0BDE8F0870021018041808180C1807E
:103BD000018141818181C1810721018270470021DA
:103BE000018041808180C1800221018100214181C9
:103BF000704721B1028842F04002028004E002884E
:103C00004FF6BF731A400280704721B1828B42F495
:103C10008062828304E0828B4FF6FF331A408283F6
:103C2000704730B5002400230C110125A540ABB22C
:103C30001AB185881D43858002E085889D43858073
:103C400030BD1AB183880B43838002E083888B43A5
:103C50008380704781817047014688897047A1F54C
:103C60007E42FF3A04D0028842F48072028004E06F
:103C700002884FF6FF631A400280704721B18288A4
:103C800042F00402828004E082884FF6FB731A40FF
:103C90008280704702884FF2FF731A4002800288C8
:103CA0000A4302807047018841F4805101807047C7
:103CB00021B1028842F40052028004E002884DF6ED
:103CC000FF731A400280704702460020012901D08C
:103CD000108B00E0908A70470146088A7047B1F562
:103CE000804F04D1028842F48042028004E00288BE
:103CF0004BF6FF731A40028070470246002013897A
:103D00000B4201D0012000E000207047CA4302812D
:103D10007047F0B50246002000240023002501F082
:103D20000F070126BE40B4B20B1101269E40B3B26C
:103D3000968806EA03051689264202D00DB10120B5
:103D400000E00020F0BD10B5002201F00F040123B7
:103D5000A3409AB2D343038110BD000000C8FFBF47
:103D600010B50446F749601A8C4245D00CDCB4F11A
:103D7000804F1DD0F448201823D0B0F5806F29D093
:103D8000B0F5006F54D12EE0B0F5806F3DD0B0F5A6
:103D90008E3F03D0B0F5923F4AD13FE00121C802E7
:103DA000FFF72CF800214FF40060FFF727F840E000
:103DB00001210846FFF72FF800210120FFF72BF81B
:103DC00037E001210220FFF726F800210220FFF74B
:103DD00022F82EE001210420FFF71DF80021042025
:103DE000FFF719F825E001210820FFF714F800215A
:103DF0000820FFF710F81CE001211020FFF70BF856
:103E000000211020FFF707F813E001212020FFF721
:103E100002F800212020FEF7FEFF0AE001214803FE
:103E2000FEF7ECFF00214FF40050FEF7E7FF00E043
:103E300000BF00BF10BD028802F08F020280CA8856
:103E40004B881A4303881A4302808A8882850A882D
:103E50000285BE4A904202D0BD4A904201D10A7A00
:103E6000028601228282704770B50024002200235E
:103E7000058C4FF6FE7635400584028C8388048BD2
:103E80004FF68F752C400D882C43751E2A400D89E6
:103E90002A434D882A43CD888586AC4DA84202D05E
:103EA000AB4DA84213D14FF6F7752A404D892A43EE
:103EB0004FF6FB752A408D882A4347F6FF652B4055
:103EC00047F6FF552B408D892B43CD892B438380AB
:103ED0000483028470BD70B5002400220023058C89
:103EE0004FF6EF7635400584028C8388048B48F6C4
:103EF000FF752C400D884FF6FF7606EA05252C430A
:103F00004FF6DF752A400D8906EA05152A434D88CC
:103F100006EA05152A43CD8805878C4DA84202D0B4
:103F20008B4DA8421DD14FF67F752A404D894FF623
:103F3000FF7606EA05152A434FF6BF752A408D889D
:103F400006EA05152A4347F6FF352B4047F2FF7571
:103F50002B408D8906EA85052B43CD8906EA850528
:103F60002B4383800483028470BD70B5002400223B
:103F70000023058C4FF6FF6635400584028C83884C
:103F8000848B4FF68F752C400D882C434FF6FF55D0
:103F90002A400D894FF6FF7606EA05252A434D880B
:103FA00006EA05252A43CD888587684DA84202D0B8
:103FB000674DA8421DD14FF2FF752A404D894FF63B
:103FC000FF7606EA05252A434FF6FF352A408D88FD
:103FD00006EA05252A4346F6FF752B4045F6FF7590
:103FE0002B408D8906EA05152B43CD8906EA051578
:103FF0002B4383808483028470BD70B5002400222B
:104000000023058C4EF6FF7635400584028C8388AC
:10401000848B48F6FF752C400D884FF6FF7606EA34
:1040200005252C434DF6FF752A400D8906EA053516
:104030002A434D8806EA05352A43CD88A0F840502A
:10404000424DA84202D0424DA84207D1C3F30D030E
:104050008D894FF6FF7606EA85152B43838084838E
:10406000028470BD828B4FF2FF331A408283828BB1
:104070004FF6FF7303EA01231A4382837047F0B5BA
:104080000C461546002100220026078C4EF6FF7CC8
:1040900007EA0C070784818B028C4FF6FF7707EA4B
:1040A000043640F6FF4739404FF6FF7707EA052709
:1040B0004FF6FF7C0CEA033C47EA0C0739434DF608
:1040C000FF773A4046F480573A4381830284F0BD3B
:1040D000828B4FF6F3731A408283828B0A4382836A
:1040E0007047F0B50C461546002100220026078CCB
:1040F0004FF6FF6C07EA0C070784818B028C4FF6A2
:10410000FF7707EA04264FF60C7739404FF6FF7722
:1041100007EA03172F4339434FF6FF573A4046F457
:1041200080773A4381830284F0BD028B4FF2FF33E4
:104130001A400283028B4FF6FF7303EA01231A43EE
:10414000028370470010004000FCFFBF002C0140BC
:1041500000340140F0B50C4615460021002200262F
:10416000078C4FF6EF7C07EA0C070784018B028C63
:104170004FF6FF7707EA041640F6FF4739404FF63F
:10418000FF7707EA033739434FF6FF7707EA05273A
:1041900039434FF6DF773A4046F010073A43018340
:1041A0000284F0BD028B4FF6F3731A400283028B38
:1041B0000A4302837047F0B50C46154600210022E1
:1041C000068C4FF6FE773E400684018B028C4FF63C
:1041D0000C7631407E1C06EA03162E4331437E1EC8
:1041E000324044F00106324301830284F0BD70B5D1
:1041F00005460C46208850B92389A2886188284644
:10420000FFF7D9FFE1882846FFF7CCFF25E020889B
:1042100004280AD12389A28861882846FFF79AFFDB
:10422000E1882846FFF781FF17E0208808280AD197
:104230002389A28861882846FFF753FFE188284632
:10424000FFF746FF09E02389A28861882846FFF727
:1042500016FFE1882846FFF705FF70BD2DE9F04104
:1042600005460C4600260127608808B9022600E0B2
:104270000026A088012801D1022700E0012720881C
:10428000A0B92389A28861882846FFF794FFE188B6
:104290002846FFF787FF23893A4631462846FFF72D
:1042A00059FFE1882846FFF740FF13E02389A288E1
:1042B00061882846FFF74EFFE1882846FFF735FF63
:1042C00023893A4631462846FFF775FFE18828469C
:1042D000FFF768FFBDE8F0810A884B881A438B8896
:1042E0001A43CB881A430B891A434B891A438B898B
:1042F0001A43A0F8442070474FF6FF7181800021D7
:104300000180C1804180017270470021018041809D
:104310008180C180018141818181C18170470021FB
:1043200001804180012181800021C180018170478D
:104330000021018041808180C18001814181818192
:10434000704721B1028842F00102028004E0028835
:1043500040F2FE331A400280704731B1B0F8442079
:1043600042F40042A0F8442005E0B0F84420C2F333
:104370000E02A0F8442070471AB183890B43838151
:1043800002E083898B43838170478182704741EAD1
:104390000203A0F8483070471AB183890B43838128
:1043A00002E083898B438381704701894FF6F8725D
:1043B0001140018170470A46002101894FF68F7331
:1043C000194011430181704730B504460D46294616
:1043D0002046FFF7F0FF208940F00700208130BD24
:1043E0002DE9F04104460D4616461F46602D06D1C4
:1043F0003B46012231462046FFF7ACFE05E03B4636
:10440000012231462046FFF7D6FE29462046FFF717
:10441000D2FF208940F007002081BDE8F08170B50F
:104420000C4600210189C9B244EA02054FF6FF7625
:1044300006EA032635432943018170BD2DE9F04189
:1044400005460E4617469846002443463A463146EE
:104450002846FFF7E4FF2C894FF6F870044044F03B
:1044600007044FF68F70044044F070042C81BDE8BF
:10447000F081F0B504460D4616461F463B463246CF
:1044800029462046FFF7CBFF208940F48040208159
:10449000F0BD0185828270470A460021018840F202
:1044A0008F331940114301807047F0B50C46154613
:1044B0001E460021002200230189028B038C4FF647
:1044C000F877394021434FF6FC473A4040F2011754
:1044D0003A434FF6DD773B404FF6FF7707EA061782
:1044E0002F433B43018102830384F0BD0A46002130
:1044F000018B4FF68F7319401143018370470A46B1
:104500000021018B48F6FF7319404FF6FF7303EA51
:1045100002231943018370470A460021818B4FF61D
:104520008F7319401143818370470A460021818BA4
:1045300048F6FF7319404FF6FF7303EA022319434D
:104540008183704721B1028842F08002028004E03A
:10455000028840F27F331A400280704721B182887E
:1045600042F00402828004E082884FF6FB731A4016
:104570008280704721B1828842F00802828004E084
:1045800082884FF6F7731A408280704721B1828883
:1045900042F00102828004E082884FF6FE731A40E6
:1045A000828070470A460021018B4FF6F77319404D
:1045B0001143018370470A460021018B4FF2FF73BC
:1045C00019404FF6FF7303EA022319430183704732
:1045D0000A460021818B4FF6F773194011438183FE
:1045E00070470A460021818B4FF2FF7319404FF646
:1045F000FF7303EA02231943818370470A460021AF
:10460000018B4FF6FB7319401143018370470A4633
:104610000021018B4FF6FF3319404FF6FF7303EA79
:1046200002231943018370470A460021818B4FF60C
:10463000FB7319401143818370470A460021818B27
:104640004FF6FF3319404FF6FF7303EA0223194375
:10465000818370470A460021018B4FF67F73194012
:104660001143018370470A460021018BC1F30E01FB
:104670004FF6FF7303EA02231943018370470A468A
:104680000021818B4FF67F7319401143818370475E
:104690000A460021818BC1F30E014FF6FF7303EA36
:1046A00002231943818370470A460021018C4FF68B
:1046B000FD7319401143018470470A460021018CA3
:1046C0004FF6F77319401143018470470A460021E1
:1046D000018C4FF6DF7319404FF6FF7303EA0213A4
:1046E0001943018470470A460021018C4FF67F73FD
:1046F00019404FF6FF7303EA021319430184704710
:104700000A460021018C4FF6FF5319404FF6FF7304
:1047100003EA02231943018470470A460021018CF1
:104720004FF2FF7319404FF6FF7303EA0223194358
:10473000018470470A460021018C4DF6FF73194031
:104740004FF6FF7303EA023319430184704710B533
:10475000038C01248C40A3430384038C02FA01F4EC
:10476000A4B22343038410BD10B5038C04248C40F1
:10477000A3430384038C02FA01F4A4B22343038409
:1047800010BD30B5038C01248C40A343038409B1D0
:10479000082918D100F1180303EB61031B684FF6D9
:1047A0008F74234000F1180404EB6104236000F1CE
:1047B000180303EB61031B68134300F1180404EBB7
:1047C000610423601FE00B1FC3F34E0400F11803C4
:1047D0001B5948F6FF7423400C1FC4F34E0500F12B
:1047E000180463510B1FC3F34E0400F118031B5947
:1047F0004FF6FF7404EA022423430C1FC4F34E0552
:1048000000F11804635130BD21B1028842F0020268
:10481000028004E0028840F2FD331A4002807047B3
:1048200021B1028842F00402028004E0028840F2D2
:10483000FB331A400280704721B1828842F0800227
:10484000828004E082884FF67F731A40828070472E
:10485000028840F2F7331A40028002880A4302803D
:10486000704782884FF68F731A40828082880A438D
:104870008280704702894FF6F8731A4002810289DC
:104880000A430281704702894FF67F731A40028102
:1048900002890A430281704781847047818570478D
:1048A000818670470187704781877047A0F8401064
:1048B00070470288D2B2028002880A4302807047A1
:1048C0000146888E70470146088F70470146888FE1
:1048D00070470146B1F8400070470146888C704728
:1048E0000146088D704702460020138A0B4201D012
:1048F000012000E000207047CA430282704730B5B3
:104900000246002000230024158A05EA0103958948
:1049100005EA010413B10CB1012000E0002030BD14
:10492000CA4302827047000010B5002400BF0BE0AC
:104930004FF40061FE48FEF7B5FB08B9012010BD39
:104940000A2000F024FD641CB4F5C87FF0D30020D9
:10495000F5E710B504464FF40061F648FEF7B1FBE9
:104960000121F448FEF7ADFB204600F0EDFC4FF4CA
:104970000061F048FEF7A3FB10BD70B505460C467C
:10498000FFF7D2FF4FF40061EA48FEF79AFB0121DE
:10499000E848FEF796FB284600F0D6FC0121E548E2
:1049A000FEF78DFB204600F0CFFC4FF40061E1489C
:1049B000FEF785FB70BD2DE9F04104460E46002749
:1049C00025464FF40061DB48FEF77BFB0121D94807
:1049D000FEF777FB287800F0B7FC6D1C0121D54865
:1049E000FEF76DFB00BF05E0287800F0ADFC6D1C04
:1049F000781CC7B2701EB842F6DC4FF40061CD4897
:104A0000FEF75DFBBDE8F0812DE9F04104460E465E
:104A100015460027B846E11704EB5171C910B4EBF5
:104A2000C1010AD02046E11704EB5171C910A4EB73
:104A3000C101C1F108012144CCB22046E11704EBC9
:104A40005171C1F3C704FFF76FFF4FF40061B9481C
:104A5000FEF737FB0121B748FEF733FB242000F0B7
:104A600073FC0121B348FEF72AFB00270BE04FF04F
:104A7000000805E0287800F067FC6D1C08F10108CB
:104A8000A045F7DB7F1CB742F1D34FF40061A94882
:104A9000FEF715FBBDE8F0812DE9F04104460D4617
:104AA00016460027B846E11704EB5171C910B4EB64
:104AB000C1010AD02046E11704EB5171C910A4EBE3
:104AC000C101C1F108012144CCB22046E11704EB39
:104AD0005171C1F3C704FFF727FF4FF400619548F8
:104AE000FEF7EFFA01219348FEF7EBFA242000F0DD
:104AF0002BFC01218F48FEF7E2FA00270AE04FF075
:104B0000000804E0304600F01FFC08F10108A04551
:104B1000F8DB7F1CAF42F2D34FF400618548FEF70B
:104B2000CEFABDE8F08110B5C0212220FFF725FFA5
:104B30002020FFF70EFF10BD10B5C3212220FFF784
:104B40001CFF2020FFF705FF10BD10B5012110202C
:104B5000FFF713FF10BD2DE9FE4304460D4617462F
:104B60001E46DDE90A8944208DF808008DF80940C9
:104B70008DF80A5045208DF800008DF801708DF8F1
:104B800002608DF803808DF80490032102A8FFF7DE
:104B900012FF05216846FFF70EFFBDE8FE837CB5D6
:104BA00006460C4615464E208DF804008DF805602B
:104BB0004F208DF800008DF801408DF80250022141
:104BC00001A8FFF7F8FE03216846FFF7F4FE7CBD5D
:104BD0002DE9FC4706460F4614461D46DDE90A89C5
:104BE0002B46224639463046CDE90089FFF7B3FF10
:104BF0002A4621463046FFF7D2FFBDE8FC871CB5A8
:104C000004214D48FFF7D7FE04214C48FFF7D3FE9F
:104C100002214B48FFF7CFFE02214A48FFF7CBFEA7
:104C200002214948FFF7C7FE02214848FFF7C3FEAB
:104C3000002000900346F9220F210190FFF78BFF1F
:104C40000022F9211046FFF7AAFF1CBD10B5042170
:104C50003848FEF736FA642000F099FB0421354805
:104C6000FEF72DFA642000F092FBFFF7C8FF10BD9D
:104C700010B5C4212220FFF780FE2020FFF769FE37
:104C8000FF20FFF766FE10BD10B504212220FFF7BC
:104C900074FE2020FFF75DFEFF20FFF75AFE10BDD7
:104CA00070B504460D4629462046FFF784FE70BDC8
:104CB00010B5FFF7CBFF1E212548FFF7F1FFFFF7E7
:104CC00032FF10BD10B5FFF7C1FF1E212148FFF7CD
:104CD000E7FFFFF728FF10BD70B504460D46002220
:104CE000F9211046FFF75BFF2DB9FF22FA21802042
:104CF000FFF7D2FE04E02246FA218020FFF784FE6F
:104D0000FFF7B6FF70BD2DE9FC5F04460D46164661
:104D10001F46DDE90C89B9F1000F54D1C6F3072015
:104D2000F1B2AA46EB1705EB5373CDE9001013E07F
:104D300000080140000C0140BC010020C00100201F
:104D4000CC010020D0010020D2010020D60100209B
:104D50006ADF000888DF0008C3F3C701A346E31732
:104D600004EB5373C3F3C700FAB2C7F30723FFF78B
:104D70002FFF98F80020BB1B591C2B1BD8B2FFF744
:104D80008BFEFFF781FFC82000F001FBC6F3072070
:104D9000F1B2EB1705EB5373CDE90010C3F3C70174
:104DA000E31704EB5373C3F3C700FAB2C7F3072347
:104DB000FFF70EFF98F80020BB1B591C2B1BD8B225
:104DC000FFF76AFE7EE0B9F1010F3ED1C6F307207E
:104DD000F1B2AA46EB1705EB5373CDE90010C3F30C
:104DE000C701A346E31704EB5373C3F3C700FAB23A
:104DF000C7F30723FFF7ECFEBA1B511C2A1BD0B2E6
:104E00004246FFF701FEFFF73FFF4FF4967000F0B8
:104E1000BEFAC6F30720F1B2EB1705EB5373CDE9E9
:104E20000010C3F3C701E31704EB5373C3F3C700C8
:104E3000FAB2C7F30723FFF7CBFEBA1B511C2A1B9C
:104E4000D0B24246FFF7E0FD3CE0C6F30720F1B2E6
:104E5000AA46EB1705EB5373CDE90010C3F3C70166
:104E6000A346E31704EB5373C3F3C700FAB2C7F3C7
:104E70000723FFF7ADFEBA1B511C2A1BD0B24246D6
:104E8000FFF7C2FDFFF700FFC82000F080FAC6F36D
:104E90000720F1B2EB1705EB5373CDE90010C3F314
:104EA000C701E31704EB5373C3F3C700FAB2C7F3A8
:104EB0000723FFF78DFEBA1B511C2A1BD0B24246B6
:104EC000FFF7A2FDBDE8FC9F2DE9FC4105460C461D
:104ED00016460120F227A7EBC407FB1DF227A7EB1C
:104EE000C4020F2707EBC507F9B2EF06CDE9006052
:104EF000380EFFF708FFBDE8FC812DE9FC410546AF
:104F00000C4616460120EA27A7EB041707F10F030A
:104F1000EA27A7EB04120F2707EBC507F9B2EF0644
:104F2000CDE90060380EFFF7EEFEBDE8FC812DE90B
:104F3000FC4105460C4616460120EA27A7EB04175C
:104F400007F10F03EA27A7EB04121F2707EBC5079A
:104F5000F9B2EF06CDE90060380EFFF7D4FEBDE8E8
:104F6000FC812DE9FC4105460C4616460120DA2756
:104F7000A7EB441707F11F03DA27A7EB44121F27FB
:104F800007EBC507F9B2EF06CDE90060380EFFF771
:104F9000BAFEBDE8FC8170B506460D4614460AE02F
:104FA0002078D84901EB001229463046FFF78CFFE4
:104FB000681CC5B2641C20780028F1D170BD70B5A2
:104FC00006460D4614460AE02078CF4901EB8012D0
:104FD00029463046FFF7ABFF681CC5B2641C207839
:104FE0000028F1D170BD30B50246002303E0002057
:104FF000C854581CC3B20A2BF9DB00204877C348B9
:10500000B2FBF0F00A24B0FBF4F504FB15003030DD
:105010000870BF48B2FBF0F0B0FBF4F504FB1500DC
:1050200030304870BB48B2FBF0F0B0FBF4F504FB45
:10503000150030308870B848B2FBF0F0B0FBF4F5E2
:1050400004FB15003030C870B448B2FBF0F0B0FB80
:10505000F4F504FB15003030087142F21070B2FB19
:10506000F0F0B0FBF4F504FB1500303048714FF45C
:105070007A70B2FBF0F0B0FBF4F504FB15003030B1
:1050800088716420B2FBF0F0B0FBF4F504FB15006E
:105090003030C8710A20B2FBF0F0B0FBF4F504FB2D
:1050A0001500303008720A20B2FBF0F400FB142027
:1050B00030304872002307E0C85C302800D005E09B
:1050C0000020C854581CC3B20A2BF5DB00BFC3F143
:1050D0000A004877C3F10A00C0B230BDF0B58BB00A
:1050E00006460F4614460020089009900A9069462B
:1050F0002046FFF778FF0546C5F10A006A46811889
:105100002A4608A800F054F908AA39463046FFF7A5
:1051100042FF0BB0F0BD2DE9F0418CB007460C46C4
:105120001546002009900A900B906420B5FBF0F81A
:10513000424621463846FFF7D1FF601CC1B278A233
:105140003846FFF728FF01A92846FFF74CFF06461F
:105150000226C6F10A0001AA8118324609A800F009
:1051600027F9A01CC1B209AA3846FFF714FF0CB0FA
:10517000BDE8F081F0B58BB006460F46144600201E
:10518000089009900A9069462046FFF72CFF0546D3
:10519000C5F10A006A4681182A4608A800F008F9F5
:1051A00008AA39463046FFF70AFF0BB0F0BD2DE9DB
:1051B000F0418CB007460C461546002009900A9035
:1051C0000B906420B5FBF0F8424621463846FFF7C5
:1051D000D1FF601CC1B252A23846FFF7F0FE01A910
:1051E0002846FFF700FF06460226C6F10A0001AA7C
:1051F0008118324609A800F0DBF8A01CC1B209AA48
:105200003846FFF7DCFE0CB0BDE8F08110B5454A2A
:1052100000210846FFF7A5FE424A80320121002006
:10522000FFF79FFE404A02210020FFF79AFE3F4A07
:1052300000210620FFF761FE3C4A203201210620B2
:10524000FFF75BFE3AA204210620FFF7A4FE374ACF
:10525000403203210620FFF750FE344A6032042119
:105260000620FFF74AFE334A00210820FFF745FEDB
:10527000304A203201210820FFF73FFE2CA20421F2
:105280000820FFF788FE2B4A803200210A20FFF712
:1052900034FE284AA03201210A20FFF72EFE254ABB
:1052A000C03202210A20FFF728FE21A206210A208F
:1052B000FFF771FE1F4AE03200210C20FFF71DFEB0
:1052C0001D4A01210C20FFF718FE19A204210C2011
:1052D000FFF761FE194A03210846FFF742FE18A2B4
:1052E00016210020FFF757FE134AA0321D2100208F
:1052F000FFF703FE104AC0321E210020FFF7FDFD1C
:1053000010BD0000EAA30008EAAB000800CA9A3BFF
:1053100000E1F5058096980040420F00A08601004C
:105320002E000000EAD00008EAD100080ACD0008EB
:105330003A0000000ACE00080ACF0008EADE0008A2
:10534000436F70722E00000070B5044600251BE00C
:105350004FF400511548FDF7B4FE14F0800F05D04E
:105360004FF400411148FDF7AAFE04E04FF400415C
:105370000E48FDF7A6FE6006040E4FF400510B48E0
:10538000FDF79DFE681CC5B2082DE1DB70BD002253
:10539000002100BF06E0002200E0521CB2F5205FB1
:1053A000FBD3491C8142F6D370470000000C01403A
:1053B00040EA01039B0703D009E008C9121F08C097
:1053C000042AFAD203E011F8013B00F8013B521E17
:1053D000F9D27047F0B480EA0102D40F4200B2EB78
:1053E000410F02D20246084611464A0042D0C30D80
:1053F000DDB2C1F3C752AD1A202D35DAC1F3160163
:1054000041F4000204B15242C5F1200602FA06F14D
:105410002A411044B3EBD05F23D0C4B1012DA0EBDF
:10542000C35009DCF0BC4FF0004202EAC35200F561
:105430000000DBB200F05CB9400000F1807000EBCE
:10544000C350A0F1807040EAD170490009E04908DA
:1054500041EAC071A0EBC35000F50000400800EB2A
:10546000C350F0BC00F03BB96142012202EB4101A4
:10547000001BF6E7F0BC704781F00041AAE780F01E
:105480000040A7E780EA010210B502F000434000A7
:1054900026D04A0023D04FEA106101EB1261C0F31D
:1054A0005600C2F3560240F4000042F40002A0FB92
:1054B0000220A1F17F014FEA0040140401D000F165
:1054C000010050EA124001D44000491EC2B20C064D
:1054D00004EBD010401C4008802A02D003E00020DA
:1054E00010BD20F00100002900DA0020184310BD93
:1054F00030B480EA010202F0004530F0004221F0B1
:10550000004015D0A0B1C0F3C753C2F3C754C2F3D3
:105510001601C0F31600E41A41F4000140F4000241
:105520007D34914201D3641C00E04900002C02DA72
:1055300030BC002070474FF400000023914201D39B
:10554000891A034340084FEA4101F7D151B1914212
:1055500002D14FF0004105E002D24FF0010101E01D
:105560006FF0010103EBC450284430BC00F0B7B821
:105570002DE9F04D81EA030404F0004B21F00045D1
:1055800014464FF0000A23F0004150EA050220D0F3
:1055900054EA01021DD0C5F30A570246C5F31303AE
:1055A000C1F31300C1F30A5640F4801543F480138D
:1055B000A7EB0608101BD64608F2FD3873EB050072
:1055C00002D308F1010801E092185B41B8F1000F25
:1055D00003DA00200146BDE8F08D00204FF4801171
:1055E000064684460EE0171B73EB050705D3121B16
:1055F00063EB050306434CEA010C49084FEA30000F
:1056000092185B4150EA0107EDD152EA030012D033
:1056100082EA040083EA0501084303D100224FF027
:10562000004308E0101BAB4102D20122002302E03C
:105630006FF0010253101AEB06004CEB085110EB0F
:105640000A0041EB0B01BDE8F04D00F07EB8962357
:105650000022114600F04CB820F00040C10DC0F30C
:10566000160040F400007F2901DA002070479629D7
:1056700003DCC1F19601C8407047963988407047F5
:1056800000F0004230F000400AD0C10D01F5607119
:10569000C0F3160042EA0151C208400711437047A7
:1056A00000200146704701F0004330B421F0004172
:1056B00050EA010206D00A0DA2F56072C1F313018F
:1056C000002A02DC30BC00207047440F44EAC104C9
:1056D000C100E01830BC00EBC250AFF300800029DD
:1056E000A8BF7047401C490008BF20F00100704768
:1056F00010B4B0FA80FC00FA0CF050EA010404BFC8
:1057000010BC704749B1CCF1200421FA04F411FA1D
:105710000CF118BF012121430843A3EB0C01CB1D61
:105720000106000A002BBEBF002010BC704700EB32
:10573000C35010440029A4BF10BC7047401C49004E
:1057400008BF20F0010010BC704710B5002B08DA2C
:10575000401C41F1000192185B411A4301D120F035
:10576000010010BD2DE9F04D92469B4611B1B1FAF2
:1057700081F202E0B0FA80F22032904600F056F852
:1057800004460F4640EA0A0041EA0B0153465A46D6
:10579000084303D120463946BDE8F08D114653EA4F
:1057A000010015D0C8F14002504600F04EF8054601
:1057B0000E4650465946424600F038F8084301D09C
:1057C000012000E00020054346EAE0762C43374301
:1057D0000A984FEA4453A0EB08004FEAD4240A3059
:1057E0004FF0000244EA47544FEAD72502D5002083
:1057F0000146D1E7010510196941DDE908450019A5
:105800006941BDE8F04DA0E7064C074D06E0E068B1
:1058100040F0010394E8070098471034AC42F6D3F7
:10582000FAF78AFCA8DF0008C8DF0008202A04DB9A
:10583000203A00FA02F1002070479140C2F12003A3
:1058400020FA03F3194390407047202A04DB203AE2
:1058500021FA02F00021704721FA02F3D040C2F190
:105860002002914008431946704770B501EB0204CD
:1058700010F8015B15F0070301D110F8013B2A1164
:1058800006D110F8012B03E010F8016B01F8016B51
:105890005B1EF9D12B0705D40023521E0FD401F84B
:1058A000013BFAE710F8013B02F10202A1EB03030E
:1058B00003E013F8015B01F8015B521EF9D5A14228
:1058C000D6D3002070BD02E008C8121F08C1002A0C
:1058D000FAD170477047002001E001C1121F002A71
:1058E000FBD17047FFFFFFFFFFFFFFFFFFFFFFFF41
:1058F000FFFFFFFFFFFFFFFFFFFFFFFFFFFFFFFFB8
:10590000FFFFFFFFFFFFFFFFFFFFFFFFFFFC01FFA8
:10591000FFE0003FFFC0001FFF83FE0FFF1FFFC718
:10592000FF3FFFE7FF7FFFF7FF7FFFF7FF3FFFE747
:10593000FF1FFFC7FF87FF0FFFC0001FFFE0003FF3
:10594000FFFC01FFFFFFFFFFFFFFFFFFFFFFFFFF68
:10595000FFFFFFFFFFFFFFFFFFFFFFFFFFFFFFFF57
:10596000FFFFFFFFFFFFFFFFFFFFFFFFFFFFFFFF47
:10597000FFFFFFFFFFFFFFFFFFFFFFFFFFFFFFFF37
:10598000FFFFFFFFFFFFFFFFFFFFFFFFFFFFFFFF27
:10599000FFDFFFF7FFDFFFF7FFDFFFF7FFDFFFE7C7
:1059A000FF800007FF000007FF000007FFFFFFE781
:1059B000FFFFFFF7FFFFFFF7FFFFFFF7FFFFFFFF0F
:1059C000FFFFFFFFFFFFFFFFFFFFFFFFFFFFFFFFE7
:1059D000FFFFFFFFFFFFFFFFFFFFFFFFFFFFFFFFD7
:1059E000FFFFFFFFFFFFFFFFFFFFFFFFFFFFFFFFC7
:1059F000FFFFFFFFFFFFFFFFFFFFFFFFFFFFFFFFB7
:105A0000FFFFFFFFFFFFFFFFFFFFFFFFFFE1FFC7FC
:105A1000FFC1FF87FF99FF27FF3FFE67FF7FFCE77E
:105A2000FF7FF9E7FF7FF3E7FF7FE7E7FF3FCFE780
:105A3000FF1F1FE7FF803FC7FF807E07FFE0FE1FBD
:105A4000FFFFFFFFFFFFFFFFFFFFFFFFFFFFFFFF66
:105A5000FFFFFFFFFFFFFFFFFFFFFFFFFFFFFFFF56
:105A6000FFFFFFFFFFFFFFFFFFFFFFFFFFFFFFFF46
:105A7000FFFFFFFFFFFFFFFFFFFFFFFFFFFFFFFF36
:105A8000FFFFFFFFFFFFFFFFFFFFFFFFFFC3FE1F43
:105A9000FF83FE0FFF83FE0FFF3FFFE7FF7FBFF790
:105AA000FF7FBFF7FF7FBFF7FF3F1FF7FF1E1FE717
:105AB000FF804FCFFF80C00FFFE1E01FFFFFF87FA7
:105AC000FFFFFFFFFFFFFFFFFFFFFFFFFFFFFFFFE6
:105AD000FFFFFFFFFFFFFFFFFFFFFFFFFFFFFFFFD6
